{
  "contractName": "Shop",
  "abi": [
    {
      "inputs": [],
      "stateMutability": "nonpayable",
      "type": "constructor"
    },
    {
      "inputs": [],
      "name": "admin",
      "outputs": [
        {
          "internalType": "address",
          "name": "",
          "type": "address"
        }
      ],
      "stateMutability": "view",
      "type": "function"
    },
    {
      "inputs": [],
      "name": "counter",
      "outputs": [
        {
          "internalType": "uint256",
          "name": "",
          "type": "uint256"
        }
      ],
      "stateMutability": "view",
      "type": "function"
    },
    {
      "inputs": [
        {
          "internalType": "uint256",
          "name": "",
          "type": "uint256"
        }
      ],
      "name": "items",
      "outputs": [
        {
          "internalType": "uint256",
          "name": "id",
          "type": "uint256"
        },
        {
          "internalType": "string",
          "name": "name",
          "type": "string"
        },
        {
          "internalType": "uint256",
          "name": "price",
          "type": "uint256"
        },
        {
          "internalType": "address",
          "name": "seller",
          "type": "address"
        }
      ],
      "stateMutability": "view",
      "type": "function"
    },
    {
      "inputs": [
        {
          "internalType": "address",
          "name": "",
          "type": "address"
        }
      ],
      "name": "payments",
      "outputs": [
        {
          "internalType": "uint256",
          "name": "",
          "type": "uint256"
        }
      ],
      "stateMutability": "view",
      "type": "function"
    },
    {
      "inputs": [],
      "name": "payRub",
      "outputs": [],
      "stateMutability": "payable",
      "type": "function"
    },
    {
      "inputs": [],
      "name": "viewBalance",
      "outputs": [
        {
          "internalType": "uint256",
          "name": "",
          "type": "uint256"
        }
      ],
      "stateMutability": "view",
      "type": "function"
    },
    {
      "inputs": [],
      "name": "withdraw",
      "outputs": [],
      "stateMutability": "nonpayable",
      "type": "function"
    }
  ],
  "bytecode": "0x60806040523480156200001157600080fd5b50336000806101000a81548173ffffffffffffffffffffffffffffffffffffffff021916908373ffffffffffffffffffffffffffffffffffffffff1602179055506200009e6040518060400160405280600481526020017f426f6f6b000000000000000000000000000000000000000000000000000000008152506404a817c800620000f160201b60201c565b620000eb6040518060400160405280600581526020017f50686f6e6500000000000000000000000000000000000000000000000000000081525065018bcfe56800620000f160201b60201c565b620005b0565b604051806080016040528060015481526020018381526020018281526020013373ffffffffffffffffffffffffffffffffffffffff168152506002600060015481526020019081526020016000206000820151816000015560208201518160010190816200016091906200044d565b506040820151816002015560608201518160030160006101000a81548173ffffffffffffffffffffffffffffffffffffffff021916908373ffffffffffffffffffffffffffffffffffffffff16021790555090505060016000815480929190620001ca9062000563565b91905055505050565b600081519050919050565b7f4e487b7100000000000000000000000000000000000000000000000000000000600052604160045260246000fd5b7f4e487b7100000000000000000000000000000000000000000000000000000000600052602260045260246000fd5b600060028204905060018216806200025557607f821691505b6020821081036200026b576200026a6200020d565b5b50919050565b60008190508160005260206000209050919050565b60006020601f8301049050919050565b600082821b905092915050565b600060088302620002d57fffffffffffffffffffffffffffffffffffffffffffffffffffffffffffffffff8262000296565b620002e1868362000296565b95508019841693508086168417925050509392505050565b6000819050919050565b6000819050919050565b60006200032e620003286200032284620002f9565b62000303565b620002f9565b9050919050565b6000819050919050565b6200034a836200030d565b62000362620003598262000335565b848454620002a3565b825550505050565b600090565b620003796200036a565b620003868184846200033f565b505050565b5b81811015620003ae57620003a26000826200036f565b6001810190506200038c565b5050565b601f821115620003fd57620003c78162000271565b620003d28462000286565b81016020851015620003e2578190505b620003fa620003f18562000286565b8301826200038b565b50505b505050565b600082821c905092915050565b6000620004226000198460080262000402565b1980831691505092915050565b60006200043d83836200040f565b9150826002028217905092915050565b6200045882620001d3565b67ffffffffffffffff811115620004745762000473620001de565b5b6200048082546200023c565b6200048d828285620003b2565b600060209050601f831160018114620004c55760008415620004b0578287015190505b620004bc85826200042f565b8655506200052c565b601f198416620004d58662000271565b60005b82811015620004ff57848901518255600182019150602085019450602081019050620004d8565b868310156200051f57848901516200051b601f8916826200040f565b8355505b6001600288020188555050505b505050505050565b7f4e487b7100000000000000000000000000000000000000000000000000000000600052601160045260246000fd5b60006200057082620002f9565b91507fffffffffffffffffffffffffffffffffffffffffffffffffffffffffffffffff8203620005a557620005a462000534565b5b600182019050919050565b61065e80620005c06000396000f3fe6080604052600436106100705760003560e01c8063bfb231d21161004e578063bfb231d2146100e2578063e2982c2114610122578063eed6f4681461015f578063f851a4401461016957610070565b80633ccfd60b146100755780633ff1e05b1461008c57806361bc221a146100b7575b600080fd5b34801561008157600080fd5b5061008a610194565b005b34801561009857600080fd5b506100a1610221565b6040516100ae91906103be565b60405180910390f35b3480156100c357600080fd5b506100cc610245565b6040516100d991906103be565b60405180910390f35b3480156100ee57600080fd5b506101096004803603810190610104919061040a565b61024b565b6040516101199493929190610508565b60405180910390f35b34801561012e57600080fd5b5061014960048036038101906101449190610580565b610323565b60405161015691906103be565b60405180910390f35b61016761033b565b005b34801561017557600080fd5b5061017e610381565b60405161018b91906105ad565b60405180910390f35b60008060009054906101000a900473ffffffffffffffffffffffffffffffffffffffff16905060003090508173ffffffffffffffffffffffffffffffffffffffff166108fc8273ffffffffffffffffffffffffffffffffffffffff16319081150290604051600060405180830381858888f1935050505015801561021c573d6000803e3d6000fd5b505050565b6000803090508073ffffffffffffffffffffffffffffffffffffffff163191505090565b60015481565b6002602052806000526040600020600091509050806000015490806001018054610274906105f7565b80601f01602080910402602001604051908101604052809291908181526020018280546102a0906105f7565b80156102ed5780601f106102c2576101008083540402835291602001916102ed565b820191906000526020600020905b8154815290600101906020018083116102d057829003601f168201915b5050505050908060020154908060030160009054906101000a900473ffffffffffffffffffffffffffffffffffffffff16905084565b60036020528060005260406000206000915090505481565b34600360003373ffffffffffffffffffffffffffffffffffffffff1673ffffffffffffffffffffffffffffffffffffffff16815260200190815260200160002081905550565b60008054906101000a900473ffffffffffffffffffffffffffffffffffffffff1681565b6000819050919050565b6103b8816103a5565b82525050565b60006020820190506103d360008301846103af565b92915050565b600080fd5b6103e7816103a5565b81146103f257600080fd5b50565b600081359050610404816103de565b92915050565b6000602082840312156104205761041f6103d9565b5b600061042e848285016103f5565b91505092915050565b600081519050919050565b600082825260208201905092915050565b60005b83811015610471578082015181840152602081019050610456565b60008484015250505050565b6000601f19601f8301169050919050565b600061049982610437565b6104a38185610442565b93506104b3818560208601610453565b6104bc8161047d565b840191505092915050565b600073ffffffffffffffffffffffffffffffffffffffff82169050919050565b60006104f2826104c7565b9050919050565b610502816104e7565b82525050565b600060808201905061051d60008301876103af565b818103602083015261052f818661048e565b905061053e60408301856103af565b61054b60608301846104f9565b95945050505050565b61055d816104e7565b811461056857600080fd5b50565b60008135905061057a81610554565b92915050565b600060208284031215610596576105956103d9565b5b60006105a48482850161056b565b91505092915050565b60006020820190506105c260008301846104f9565b92915050565b7f4e487b7100000000000000000000000000000000000000000000000000000000600052602260045260246000fd5b6000600282049050600182168061060f57607f821691505b602082108103610622576106216105c8565b5b5091905056fea2646970667358221220f53eafb21112f2fc023c7c9eebb2bb44de9f87fded2d2c99b9aadc2d94fbd06e64736f6c63430008110033",
  "immutableReferences": {},
  "source": "// SPDX-License-Identifier: SEE LICENSE IN LICENSE\npragma solidity >=0.5.0;\n\ncontract Shop{\n    address public admin;\n    uint public counter;\n    struct Item {\n        uint id;\n        string name;\n        uint price;\n        address seller;\n    }\n    \n    mapping(uint=>Item) public items;\n    mapping(address=>uint) public payments;\n\n    function payRub() public payable{\n        payments[msg.sender]=msg.value;\n    }\n    function viewBalance()public view returns (uint){\n        address _addr = address(this);\n        return _addr.balance;\n    }\n    function addItem(string memory name, uint price)private{\n        items[counter]=Item(counter, name, price, msg.sender);\n        counter++;\n    }\n    function withdraw() public{\n        address payable receiver = payable(admin);\n        address _addr = address(this);\n        receiver.transfer(_addr.balance);\n    }  \n\n    constructor() public {\n        admin  = msg.sender;\n        addItem(\"Book\", 20000000000);\n        addItem(\"Phone\", 1700000000000);\n    }\n}",
  "sourcePath": "/Users/public_hysteria/vk_nft/contracts/Marketplace.sol",
  "compiler": {
    "name": "solc",
    "version": "0.8.17+commit.8df45f5f.Emscripten.clang"
  },
  "schemaVersion": "3.4.11",
  "updatedAt": "2023-02-04T05:29:07.155Z",
  "devdoc": {
    "kind": "dev",
    "methods": {},
    "version": 1
  },
  "userdoc": {
    "kind": "user",
    "methods": {},
    "version": 1
  }
}