{
  "contractName": "ticketCreator",
  "abi": [
    {
      "inputs": [
        {
          "internalType": "string",
          "name": "_name",
          "type": "string"
        },
        {
          "internalType": "string",
          "name": "_symbol",
          "type": "string"
        },
        {
          "internalType": "uint256",
          "name": "_maxAmount",
          "type": "uint256"
        },
        {
          "internalType": "uint256",
          "name": "_price",
          "type": "uint256"
        }
      ],
      "name": "createTicket",
      "outputs": [
        {
          "internalType": "contract TicketNFT",
          "name": "tokenAddress",
          "type": "address"
        }
      ],
      "stateMutability": "nonpayable",
      "type": "function"
    }
  ],
  "bytecode": "0x608060405234801561001057600080fd5b50613db5806100206000396000f3fe60806040523480156200001157600080fd5b50600436106200002e5760003560e01c806393e9541d1462000033575b600080fd5b6200005160048036038101906200004b919062000275565b62000069565b604051620000609190620003b0565b60405180910390f35b600084848484336040516200007e90620000b6565b6200008e9594939291906200048c565b604051809103906000f080158015620000ab573d6000803e3d6000fd5b509050949350505050565b61388880620004f883390190565b6000604051905090565b600080fd5b600080fd5b600080fd5b600080fd5b6000601f19601f8301169050919050565b7f4e487b7100000000000000000000000000000000000000000000000000000000600052604160045260246000fd5b6200012d82620000e2565b810181811067ffffffffffffffff821117156200014f576200014e620000f3565b5b80604052505050565b600062000164620000c4565b905062000172828262000122565b919050565b600067ffffffffffffffff821115620001955762000194620000f3565b5b620001a082620000e2565b9050602081019050919050565b82818337600083830152505050565b6000620001d3620001cd8462000177565b62000158565b905082815260208101848484011115620001f257620001f1620000dd565b5b620001ff848285620001ad565b509392505050565b600082601f8301126200021f576200021e620000d8565b5b813562000231848260208601620001bc565b91505092915050565b6000819050919050565b6200024f816200023a565b81146200025b57600080fd5b50565b6000813590506200026f8162000244565b92915050565b60008060008060808587031215620002925762000291620000ce565b5b600085013567ffffffffffffffff811115620002b357620002b2620000d3565b5b620002c18782880162000207565b945050602085013567ffffffffffffffff811115620002e557620002e4620000d3565b5b620002f38782880162000207565b935050604062000306878288016200025e565b925050606062000319878288016200025e565b91505092959194509250565b600073ffffffffffffffffffffffffffffffffffffffff82169050919050565b6000819050919050565b6000620003706200036a620003648462000325565b62000345565b62000325565b9050919050565b600062000384826200034f565b9050919050565b6000620003988262000377565b9050919050565b620003aa816200038b565b82525050565b6000602082019050620003c760008301846200039f565b92915050565b600081519050919050565b600082825260208201905092915050565b60005b8381101562000409578082015181840152602081019050620003ec565b60008484015250505050565b60006200042282620003cd565b6200042e8185620003d8565b935062000440818560208601620003e9565b6200044b81620000e2565b840191505092915050565b62000461816200023a565b82525050565b6000620004748262000325565b9050919050565b620004868162000467565b82525050565b600060a0820190508181036000830152620004a8818862000415565b90508181036020830152620004be818762000415565b9050620004cf604083018662000456565b620004de606083018562000456565b620004ed60808301846200047b565b969550505050505056fe60806040523480156200001157600080fd5b5060405162003888380380620038888339818101604052810190620000379190620003da565b848481600090816200004a9190620006e1565b5080600190816200005c9190620006e1565b5050506200007f62000073620000d960201b60201c565b620000e160201b60201c565b826007819055508160098190555080600a60016101000a81548173ffffffffffffffffffffffffffffffffffffffff021916908373ffffffffffffffffffffffffffffffffffffffff1602179055505050505050620007c8565b600033905090565b6000600660009054906101000a900473ffffffffffffffffffffffffffffffffffffffff16905081600660006101000a81548173ffffffffffffffffffffffffffffffffffffffff021916908373ffffffffffffffffffffffffffffffffffffffff1602179055508173ffffffffffffffffffffffffffffffffffffffff168173ffffffffffffffffffffffffffffffffffffffff167f8be0079c531659141344cd1fd0a4f28419497f9722a3daafe3b4186f6b6457e060405160405180910390a35050565b6000604051905090565b600080fd5b600080fd5b600080fd5b600080fd5b6000601f19601f8301169050919050565b7f4e487b7100000000000000000000000000000000000000000000000000000000600052604160045260246000fd5b6200021082620001c5565b810181811067ffffffffffffffff82111715620002325762000231620001d6565b5b80604052505050565b600062000247620001a7565b905062000255828262000205565b919050565b600067ffffffffffffffff821115620002785762000277620001d6565b5b6200028382620001c5565b9050602081019050919050565b60005b83811015620002b057808201518184015260208101905062000293565b60008484015250505050565b6000620002d3620002cd846200025a565b6200023b565b905082815260208101848484011115620002f257620002f1620001c0565b5b620002ff84828562000290565b509392505050565b600082601f8301126200031f576200031e620001bb565b5b815162000331848260208601620002bc565b91505092915050565b6000819050919050565b6200034f816200033a565b81146200035b57600080fd5b50565b6000815190506200036f8162000344565b92915050565b600073ffffffffffffffffffffffffffffffffffffffff82169050919050565b6000620003a28262000375565b9050919050565b620003b48162000395565b8114620003c057600080fd5b50565b600081519050620003d481620003a9565b92915050565b600080600080600060a08688031215620003f957620003f8620001b1565b5b600086015167ffffffffffffffff8111156200041a5762000419620001b6565b5b620004288882890162000307565b955050602086015167ffffffffffffffff8111156200044c576200044b620001b6565b5b6200045a8882890162000307565b94505060406200046d888289016200035e565b935050606062000480888289016200035e565b92505060806200049388828901620003c3565b9150509295509295909350565b600081519050919050565b7f4e487b7100000000000000000000000000000000000000000000000000000000600052602260045260246000fd5b60006002820490506001821680620004f357607f821691505b602082108103620005095762000508620004ab565b5b50919050565b60008190508160005260206000209050919050565b60006020601f8301049050919050565b600082821b905092915050565b600060088302620005737fffffffffffffffffffffffffffffffffffffffffffffffffffffffffffffffff8262000534565b6200057f868362000534565b95508019841693508086168417925050509392505050565b6000819050919050565b6000620005c2620005bc620005b6846200033a565b62000597565b6200033a565b9050919050565b6000819050919050565b620005de83620005a1565b620005f6620005ed82620005c9565b84845462000541565b825550505050565b600090565b6200060d620005fe565b6200061a818484620005d3565b505050565b5b8181101562000642576200063660008262000603565b60018101905062000620565b5050565b601f82111562000691576200065b816200050f565b620006668462000524565b8101602085101562000676578190505b6200068e620006858562000524565b8301826200061f565b50505b505050565b600082821c905092915050565b6000620006b66000198460080262000696565b1980831691505092915050565b6000620006d18383620006a3565b9150826002028217905092915050565b620006ec82620004a0565b67ffffffffffffffff811115620007085762000707620001d6565b5b620007148254620004da565b6200072182828562000646565b600060209050601f83116001811462000759576000841562000744578287015190505b620007508582620006c3565b865550620007c0565b601f19841662000769866200050f565b60005b8281101562000793578489015182556001820191506020850194506020810190506200076c565b86831015620007b35784890151620007af601f891682620006a3565b8355505b6001600288020188555050505b505050505050565b6130b080620007d86000396000f3fe60806040526004361061014b5760003560e01c806370a08231116100b6578063a22cb4651161006f578063a22cb4651461046e578063b88d4fde14610497578063c87b56dd146104c0578063e985e9c5146104fd578063edca914c1461053a578063f2fde38b146105445761014b565b806370a082311461036e578063715018a6146103ab578063856c71dd146103c25780638da5cb5b146103ed57806395d89b4114610418578063a035b1fe146104435761014b565b80631a39d8ef116101085780631a39d8ef1461026057806323b872dd1461028b57806342842e0e146102b45780634fe47f70146102dd5780635f48f393146103065780636352211e146103315761014b565b806301ffc9a71461015057806302214df21461018d57806302d05d3f146101a457806306fdde03146101cf578063081812fc146101fa578063095ea7b314610237575b600080fd5b34801561015c57600080fd5b506101776004803603810190610172919061201f565b61056d565b6040516101849190612067565b60405180910390f35b34801561019957600080fd5b506101a261064f565b005b3480156101b057600080fd5b506101b96106d5565b6040516101c691906120c3565b60405180910390f35b3480156101db57600080fd5b506101e46106fb565b6040516101f1919061216e565b60405180910390f35b34801561020657600080fd5b50610221600480360381019061021c91906121c6565b61078d565b60405161022e91906120c3565b60405180910390f35b34801561024357600080fd5b5061025e6004803603810190610259919061221f565b6107d3565b005b34801561026c57600080fd5b506102756108ea565b604051610282919061226e565b60405180910390f35b34801561029757600080fd5b506102b260048036038101906102ad9190612289565b6108f0565b005b3480156102c057600080fd5b506102db60048036038101906102d69190612289565b610950565b005b3480156102e957600080fd5b5061030460048036038101906102ff91906121c6565b610970565b005b34801561031257600080fd5b5061031b610982565b604051610328919061226e565b60405180910390f35b34801561033d57600080fd5b50610358600480360381019061035391906121c6565b610988565b60405161036591906120c3565b60405180910390f35b34801561037a57600080fd5b50610395600480360381019061039091906122dc565b610a0e565b6040516103a2919061226e565b60405180910390f35b3480156103b757600080fd5b506103c0610ac5565b005b3480156103ce57600080fd5b506103d7610ad9565b6040516103e49190612067565b60405180910390f35b3480156103f957600080fd5b50610402610aec565b60405161040f91906120c3565b60405180910390f35b34801561042457600080fd5b5061042d610b16565b60405161043a919061216e565b60405180910390f35b34801561044f57600080fd5b50610458610ba8565b604051610465919061226e565b60405180910390f35b34801561047a57600080fd5b5061049560048036038101906104909190612335565b610bae565b005b3480156104a357600080fd5b506104be60048036038101906104b991906124aa565b610bc4565b005b3480156104cc57600080fd5b506104e760048036038101906104e291906121c6565b610c26565b6040516104f4919061216e565b60405180910390f35b34801561050957600080fd5b50610524600480360381019061051f919061252d565b610c8e565b6040516105319190612067565b60405180910390f35b610542610d22565b005b34801561055057600080fd5b5061056b600480360381019061056691906122dc565b610efe565b005b60007f80ac58cd000000000000000000000000000000000000000000000000000000007bffffffffffffffffffffffffffffffffffffffffffffffffffffffff1916827bffffffffffffffffffffffffffffffffffffffffffffffffffffffff1916148061063857507f5b5e139f000000000000000000000000000000000000000000000000000000007bffffffffffffffffffffffffffffffffffffffffffffffffffffffff1916827bffffffffffffffffffffffffffffffffffffffffffffffffffffffff1916145b80610648575061064782610f81565b5b9050919050565b3373ffffffffffffffffffffffffffffffffffffffff16600a60019054906101000a900473ffffffffffffffffffffffffffffffffffffffff1673ffffffffffffffffffffffffffffffffffffffff16146106a957600080fd5b600a60009054906101000a900460ff1615600a60006101000a81548160ff021916908315150217905550565b600a60019054906101000a900473ffffffffffffffffffffffffffffffffffffffff1681565b60606000805461070a9061259c565b80601f01602080910402602001604051908101604052809291908181526020018280546107369061259c565b80156107835780601f1061075857610100808354040283529160200191610783565b820191906000526020600020905b81548152906001019060200180831161076657829003601f168201915b5050505050905090565b600061079882610feb565b6004600083815260200190815260200160002060009054906101000a900473ffffffffffffffffffffffffffffffffffffffff169050919050565b60006107de82610988565b90508073ffffffffffffffffffffffffffffffffffffffff168373ffffffffffffffffffffffffffffffffffffffff160361084e576040517f08c379a00000000000000000000000000000000000000000000000000000000081526004016108459061263f565b60405180910390fd5b8073ffffffffffffffffffffffffffffffffffffffff1661086d611036565b73ffffffffffffffffffffffffffffffffffffffff16148061089c575061089b81610896611036565b610c8e565b5b6108db576040517f08c379a00000000000000000000000000000000000000000000000000000000081526004016108d2906126d1565b60405180910390fd5b6108e5838361103e565b505050565b60085481565b6109016108fb611036565b826110f7565b610940576040517f08c379a000000000000000000000000000000000000000000000000000000000815260040161093790612763565b60405180910390fd5b61094b83838361118c565b505050565b61096b83838360405180602001604052806000815250610bc4565b505050565b610978611485565b8060078190555050565b60075481565b60008061099483611503565b9050600073ffffffffffffffffffffffffffffffffffffffff168173ffffffffffffffffffffffffffffffffffffffff1603610a05576040517f08c379a00000000000000000000000000000000000000000000000000000000081526004016109fc906127cf565b60405180910390fd5b80915050919050565b60008073ffffffffffffffffffffffffffffffffffffffff168273ffffffffffffffffffffffffffffffffffffffff1603610a7e576040517f08c379a0000000000000000000000000000000000000000000000000000000008152600401610a7590612861565b60405180910390fd5b600360008373ffffffffffffffffffffffffffffffffffffffff1673ffffffffffffffffffffffffffffffffffffffff168152602001908152602001600020549050919050565b610acd611485565b610ad76000611540565b565b600a60009054906101000a900460ff1681565b6000600660009054906101000a900473ffffffffffffffffffffffffffffffffffffffff16905090565b606060018054610b259061259c565b80601f0160208091040260200160405190810160405280929190818152602001828054610b519061259c565b8015610b9e5780601f10610b7357610100808354040283529160200191610b9e565b820191906000526020600020905b815481529060010190602001808311610b8157829003601f168201915b5050505050905090565b60095481565b610bc0610bb9611036565b8383611606565b5050565b610bd5610bcf611036565b836110f7565b610c14576040517f08c379a0000000000000000000000000000000000000000000000000000000008152600401610c0b90612763565b60405180910390fd5b610c2084848484611772565b50505050565b6060610c3182610feb565b6000610c3b6117ce565b90506000815111610c5b5760405180602001604052806000815250610c86565b80610c65846117e5565b604051602001610c769291906128bd565b6040516020818303038152906040525b915050919050565b6000600560008473ffffffffffffffffffffffffffffffffffffffff1673ffffffffffffffffffffffffffffffffffffffff16815260200190815260200160002060008373ffffffffffffffffffffffffffffffffffffffff1673ffffffffffffffffffffffffffffffffffffffff16815260200190815260200160002060009054906101000a900460ff16905092915050565b600a60009054906101000a900460ff16610d71576040517f08c379a0000000000000000000000000000000000000000000000000000000008152600401610d689061292d565b60405180910390fd5b60075460085410610db7576040517f08c379a0000000000000000000000000000000000000000000000000000000008152600401610dae90612999565b60405180910390fd5b6009543414610dfb576040517f08c379a0000000000000000000000000000000000000000000000000000000008152600401610df290612a05565b60405180910390fd5b6001600b60003373ffffffffffffffffffffffffffffffffffffffff1673ffffffffffffffffffffffffffffffffffffffff1681526020019081526020016000205410610e7d576040517f08c379a0000000000000000000000000000000000000000000000000000000008152600401610e7490612a71565b60405180910390fd5b600b60003373ffffffffffffffffffffffffffffffffffffffff1673ffffffffffffffffffffffffffffffffffffffff1681526020019081526020016000206000815480929190610ecd90612ac0565b919050555060086000815480929190610ee590612ac0565b919050555060006008549050610efb33826118b3565b50565b610f06611485565b600073ffffffffffffffffffffffffffffffffffffffff168173ffffffffffffffffffffffffffffffffffffffff1603610f75576040517f08c379a0000000000000000000000000000000000000000000000000000000008152600401610f6c90612b7a565b60405180910390fd5b610f7e81611540565b50565b60007f01ffc9a7000000000000000000000000000000000000000000000000000000007bffffffffffffffffffffffffffffffffffffffffffffffffffffffff1916827bffffffffffffffffffffffffffffffffffffffffffffffffffffffff1916149050919050565b610ff4816118d1565b611033576040517f08c379a000000000000000000000000000000000000000000000000000000000815260040161102a906127cf565b60405180910390fd5b50565b600033905090565b816004600083815260200190815260200160002060006101000a81548173ffffffffffffffffffffffffffffffffffffffff021916908373ffffffffffffffffffffffffffffffffffffffff160217905550808273ffffffffffffffffffffffffffffffffffffffff166110b183610988565b73ffffffffffffffffffffffffffffffffffffffff167f8c5be1e5ebec7d5bd14f71427d1e84f3dd0314c0f7b2291e5b200ac8c7c3b92560405160405180910390a45050565b60008061110383610988565b90508073ffffffffffffffffffffffffffffffffffffffff168473ffffffffffffffffffffffffffffffffffffffff16148061114557506111448185610c8e565b5b8061118357508373ffffffffffffffffffffffffffffffffffffffff1661116b8461078d565b73ffffffffffffffffffffffffffffffffffffffff16145b91505092915050565b8273ffffffffffffffffffffffffffffffffffffffff166111ac82610988565b73ffffffffffffffffffffffffffffffffffffffff1614611202576040517f08c379a00000000000000000000000000000000000000000000000000000000081526004016111f990612c0c565b60405180910390fd5b600073ffffffffffffffffffffffffffffffffffffffff168273ffffffffffffffffffffffffffffffffffffffff1603611271576040517f08c379a000000000000000000000000000000000000000000000000000000000815260040161126890612c9e565b60405180910390fd5b61127e8383836001611912565b8273ffffffffffffffffffffffffffffffffffffffff1661129e82610988565b73ffffffffffffffffffffffffffffffffffffffff16146112f4576040517f08c379a00000000000000000000000000000000000000000000000000000000081526004016112eb90612c0c565b60405180910390fd5b6004600082815260200190815260200160002060006101000a81549073ffffffffffffffffffffffffffffffffffffffff02191690556001600360008573ffffffffffffffffffffffffffffffffffffffff1673ffffffffffffffffffffffffffffffffffffffff168152602001908152602001600020600082825403925050819055506001600360008473ffffffffffffffffffffffffffffffffffffffff1673ffffffffffffffffffffffffffffffffffffffff16815260200190815260200160002060008282540192505081905550816002600083815260200190815260200160002060006101000a81548173ffffffffffffffffffffffffffffffffffffffff021916908373ffffffffffffffffffffffffffffffffffffffff160217905550808273ffffffffffffffffffffffffffffffffffffffff168473ffffffffffffffffffffffffffffffffffffffff167fddf252ad1be2c89b69c2b068fc378daa952ba7f163c4a11628f55a4df523b3ef60405160405180910390a46114808383836001611a38565b505050565b61148d611036565b73ffffffffffffffffffffffffffffffffffffffff166114ab610aec565b73ffffffffffffffffffffffffffffffffffffffff1614611501576040517f08c379a00000000000000000000000000000000000000000000000000000000081526004016114f890612d0a565b60405180910390fd5b565b60006002600083815260200190815260200160002060009054906101000a900473ffffffffffffffffffffffffffffffffffffffff169050919050565b6000600660009054906101000a900473ffffffffffffffffffffffffffffffffffffffff16905081600660006101000a81548173ffffffffffffffffffffffffffffffffffffffff021916908373ffffffffffffffffffffffffffffffffffffffff1602179055508173ffffffffffffffffffffffffffffffffffffffff168173ffffffffffffffffffffffffffffffffffffffff167f8be0079c531659141344cd1fd0a4f28419497f9722a3daafe3b4186f6b6457e060405160405180910390a35050565b8173ffffffffffffffffffffffffffffffffffffffff168373ffffffffffffffffffffffffffffffffffffffff1603611674576040517f08c379a000000000000000000000000000000000000000000000000000000000815260040161166b90612d76565b60405180910390fd5b80600560008573ffffffffffffffffffffffffffffffffffffffff1673ffffffffffffffffffffffffffffffffffffffff16815260200190815260200160002060008473ffffffffffffffffffffffffffffffffffffffff1673ffffffffffffffffffffffffffffffffffffffff16815260200190815260200160002060006101000a81548160ff0219169083151502179055508173ffffffffffffffffffffffffffffffffffffffff168373ffffffffffffffffffffffffffffffffffffffff167f17307eab39ab6107e8899845ad3d59bd9653f200f220920489ca2b5937696c31836040516117659190612067565b60405180910390a3505050565b61177d84848461118c565b61178984848484611a3e565b6117c8576040517f08c379a00000000000000000000000000000000000000000000000000000000081526004016117bf90612e08565b60405180910390fd5b50505050565b606060405180602001604052806000815250905090565b6060600060016117f484611bc5565b01905060008167ffffffffffffffff8111156118135761181261237f565b5b6040519080825280601f01601f1916602001820160405280156118455781602001600182028036833780820191505090505b509050600082602001820190505b6001156118a8578080600190039150507f3031323334353637383961626364656600000000000000000000000000000000600a86061a8153600a858161189c5761189b612e28565b5b04945060008503611853575b819350505050919050565b6118cd828260405180602001604052806000815250611d18565b5050565b60008073ffffffffffffffffffffffffffffffffffffffff166118f383611503565b73ffffffffffffffffffffffffffffffffffffffff1614159050919050565b6001811115611a3257600073ffffffffffffffffffffffffffffffffffffffff168473ffffffffffffffffffffffffffffffffffffffff16146119a65780600360008673ffffffffffffffffffffffffffffffffffffffff1673ffffffffffffffffffffffffffffffffffffffff168152602001908152602001600020600082825461199e9190612e57565b925050819055505b600073ffffffffffffffffffffffffffffffffffffffff168373ffffffffffffffffffffffffffffffffffffffff1614611a315780600360008573ffffffffffffffffffffffffffffffffffffffff1673ffffffffffffffffffffffffffffffffffffffff1681526020019081526020016000206000828254611a299190612e8b565b925050819055505b5b50505050565b50505050565b6000611a5f8473ffffffffffffffffffffffffffffffffffffffff16611d73565b15611bb8578373ffffffffffffffffffffffffffffffffffffffff1663150b7a02611a88611036565b8786866040518563ffffffff1660e01b8152600401611aaa9493929190612f14565b6020604051808303816000875af1925050508015611ae657506040513d601f19601f82011682018060405250810190611ae39190612f75565b60015b611b68573d8060008114611b16576040519150601f19603f3d011682016040523d82523d6000602084013e611b1b565b606091505b506000815103611b60576040517f08c379a0000000000000000000000000000000000000000000000000000000008152600401611b5790612e08565b60405180910390fd5b805181602001fd5b63150b7a0260e01b7bffffffffffffffffffffffffffffffffffffffffffffffffffffffff1916817bffffffffffffffffffffffffffffffffffffffffffffffffffffffff191614915050611bbd565b600190505b949350505050565b600080600090507a184f03e93ff9f4daa797ed6e38ed64bf6a1f0100000000000000008310611c23577a184f03e93ff9f4daa797ed6e38ed64bf6a1f0100000000000000008381611c1957611c18612e28565b5b0492506040810190505b6d04ee2d6d415b85acef81000000008310611c60576d04ee2d6d415b85acef81000000008381611c5657611c55612e28565b5b0492506020810190505b662386f26fc100008310611c8f57662386f26fc100008381611c8557611c84612e28565b5b0492506010810190505b6305f5e1008310611cb8576305f5e1008381611cae57611cad612e28565b5b0492506008810190505b6127108310611cdd576127108381611cd357611cd2612e28565b5b0492506004810190505b60648310611d005760648381611cf657611cf5612e28565b5b0492506002810190505b600a8310611d0f576001810190505b80915050919050565b611d228383611d96565b611d2f6000848484611a3e565b611d6e576040517f08c379a0000000000000000000000000000000000000000000000000000000008152600401611d6590612e08565b60405180910390fd5b505050565b6000808273ffffffffffffffffffffffffffffffffffffffff163b119050919050565b600073ffffffffffffffffffffffffffffffffffffffff168273ffffffffffffffffffffffffffffffffffffffff1603611e05576040517f08c379a0000000000000000000000000000000000000000000000000000000008152600401611dfc90612fee565b60405180910390fd5b611e0e816118d1565b15611e4e576040517f08c379a0000000000000000000000000000000000000000000000000000000008152600401611e459061305a565b60405180910390fd5b611e5c600083836001611912565b611e65816118d1565b15611ea5576040517f08c379a0000000000000000000000000000000000000000000000000000000008152600401611e9c9061305a565b60405180910390fd5b6001600360008473ffffffffffffffffffffffffffffffffffffffff1673ffffffffffffffffffffffffffffffffffffffff16815260200190815260200160002060008282540192505081905550816002600083815260200190815260200160002060006101000a81548173ffffffffffffffffffffffffffffffffffffffff021916908373ffffffffffffffffffffffffffffffffffffffff160217905550808273ffffffffffffffffffffffffffffffffffffffff16600073ffffffffffffffffffffffffffffffffffffffff167fddf252ad1be2c89b69c2b068fc378daa952ba7f163c4a11628f55a4df523b3ef60405160405180910390a4611faf600083836001611a38565b5050565b6000604051905090565b600080fd5b600080fd5b60007fffffffff0000000000000000000000000000000000000000000000000000000082169050919050565b611ffc81611fc7565b811461200757600080fd5b50565b60008135905061201981611ff3565b92915050565b60006020828403121561203557612034611fbd565b5b60006120438482850161200a565b91505092915050565b60008115159050919050565b6120618161204c565b82525050565b600060208201905061207c6000830184612058565b92915050565b600073ffffffffffffffffffffffffffffffffffffffff82169050919050565b60006120ad82612082565b9050919050565b6120bd816120a2565b82525050565b60006020820190506120d860008301846120b4565b92915050565b600081519050919050565b600082825260208201905092915050565b60005b838110156121185780820151818401526020810190506120fd565b60008484015250505050565b6000601f19601f8301169050919050565b6000612140826120de565b61214a81856120e9565b935061215a8185602086016120fa565b61216381612124565b840191505092915050565b600060208201905081810360008301526121888184612135565b905092915050565b6000819050919050565b6121a381612190565b81146121ae57600080fd5b50565b6000813590506121c08161219a565b92915050565b6000602082840312156121dc576121db611fbd565b5b60006121ea848285016121b1565b91505092915050565b6121fc816120a2565b811461220757600080fd5b50565b600081359050612219816121f3565b92915050565b6000806040838503121561223657612235611fbd565b5b60006122448582860161220a565b9250506020612255858286016121b1565b9150509250929050565b61226881612190565b82525050565b6000602082019050612283600083018461225f565b92915050565b6000806000606084860312156122a2576122a1611fbd565b5b60006122b08682870161220a565b93505060206122c18682870161220a565b92505060406122d2868287016121b1565b9150509250925092565b6000602082840312156122f2576122f1611fbd565b5b60006123008482850161220a565b91505092915050565b6123128161204c565b811461231d57600080fd5b50565b60008135905061232f81612309565b92915050565b6000806040838503121561234c5761234b611fbd565b5b600061235a8582860161220a565b925050602061236b85828601612320565b9150509250929050565b600080fd5b600080fd5b7f4e487b7100000000000000000000000000000000000000000000000000000000600052604160045260246000fd5b6123b782612124565b810181811067ffffffffffffffff821117156123d6576123d561237f565b5b80604052505050565b60006123e9611fb3565b90506123f582826123ae565b919050565b600067ffffffffffffffff8211156124155761241461237f565b5b61241e82612124565b9050602081019050919050565b82818337600083830152505050565b600061244d612448846123fa565b6123df565b9050828152602081018484840111156124695761246861237a565b5b61247484828561242b565b509392505050565b600082601f83011261249157612490612375565b5b81356124a184826020860161243a565b91505092915050565b600080600080608085870312156124c4576124c3611fbd565b5b60006124d28782880161220a565b94505060206124e38782880161220a565b93505060406124f4878288016121b1565b925050606085013567ffffffffffffffff81111561251557612514611fc2565b5b6125218782880161247c565b91505092959194509250565b6000806040838503121561254457612543611fbd565b5b60006125528582860161220a565b92505060206125638582860161220a565b9150509250929050565b7f4e487b7100000000000000000000000000000000000000000000000000000000600052602260045260246000fd5b600060028204905060018216806125b457607f821691505b6020821081036125c7576125c661256d565b5b50919050565b7f4552433732313a20617070726f76616c20746f2063757272656e74206f776e6560008201527f7200000000000000000000000000000000000000000000000000000000000000602082015250565b60006126296021836120e9565b9150612634826125cd565b604082019050919050565b600060208201905081810360008301526126588161261c565b9050919050565b7f4552433732313a20617070726f76652063616c6c6572206973206e6f7420746f60008201527f6b656e206f776e6572206f7220617070726f76656420666f7220616c6c000000602082015250565b60006126bb603d836120e9565b91506126c68261265f565b604082019050919050565b600060208201905081810360008301526126ea816126ae565b9050919050565b7f4552433732313a2063616c6c6572206973206e6f7420746f6b656e206f776e6560008201527f72206f7220617070726f76656400000000000000000000000000000000000000602082015250565b600061274d602d836120e9565b9150612758826126f1565b604082019050919050565b6000602082019050818103600083015261277c81612740565b9050919050565b7f4552433732313a20696e76616c696420746f6b656e2049440000000000000000600082015250565b60006127b96018836120e9565b91506127c482612783565b602082019050919050565b600060208201905081810360008301526127e8816127ac565b9050919050565b7f4552433732313a2061646472657373207a65726f206973206e6f74206120766160008201527f6c6964206f776e65720000000000000000000000000000000000000000000000602082015250565b600061284b6029836120e9565b9150612856826127ef565b604082019050919050565b6000602082019050818103600083015261287a8161283e565b9050919050565b600081905092915050565b6000612897826120de565b6128a18185612881565b93506128b18185602086016120fa565b80840191505092915050565b60006128c9828561288c565b91506128d5828461288c565b91508190509392505050565b7f5075726368617365206973206e6f7420617661696c61626c6500000000000000600082015250565b60006129176019836120e9565b9150612922826128e1565b602082019050919050565b600060208201905081810360008301526129468161290a565b9050919050565b7f536f6c64206f75742c20737279206d3800000000000000000000000000000000600082015250565b60006129836010836120e9565b915061298e8261294d565b602082019050919050565b600060208201905081810360008301526129b281612976565b9050919050565b7f496e636f727265637420616d6f756e7400000000000000000000000000000000600082015250565b60006129ef6010836120e9565b91506129fa826129b9565b602082019050919050565b60006020820190508181036000830152612a1e816129e2565b9050919050565b7f596f7520616c726561647920686176652061207469636b65742c206d38000000600082015250565b6000612a5b601d836120e9565b9150612a6682612a25565b602082019050919050565b60006020820190508181036000830152612a8a81612a4e565b9050919050565b7f4e487b7100000000000000000000000000000000000000000000000000000000600052601160045260246000fd5b6000612acb82612190565b91507fffffffffffffffffffffffffffffffffffffffffffffffffffffffffffffffff8203612afd57612afc612a91565b5b600182019050919050565b7f4f776e61626c653a206e6577206f776e657220697320746865207a65726f206160008201527f6464726573730000000000000000000000000000000000000000000000000000602082015250565b6000612b646026836120e9565b9150612b6f82612b08565b604082019050919050565b60006020820190508181036000830152612b9381612b57565b9050919050565b7f4552433732313a207472616e736665722066726f6d20696e636f72726563742060008201527f6f776e6572000000000000000000000000000000000000000000000000000000602082015250565b6000612bf66025836120e9565b9150612c0182612b9a565b604082019050919050565b60006020820190508181036000830152612c2581612be9565b9050919050565b7f4552433732313a207472616e7366657220746f20746865207a65726f2061646460008201527f7265737300000000000000000000000000000000000000000000000000000000602082015250565b6000612c886024836120e9565b9150612c9382612c2c565b604082019050919050565b60006020820190508181036000830152612cb781612c7b565b9050919050565b7f4f776e61626c653a2063616c6c6572206973206e6f7420746865206f776e6572600082015250565b6000612cf46020836120e9565b9150612cff82612cbe565b602082019050919050565b60006020820190508181036000830152612d2381612ce7565b9050919050565b7f4552433732313a20617070726f766520746f2063616c6c657200000000000000600082015250565b6000612d606019836120e9565b9150612d6b82612d2a565b602082019050919050565b60006020820190508181036000830152612d8f81612d53565b9050919050565b7f4552433732313a207472616e7366657220746f206e6f6e20455243373231526560008201527f63656976657220696d706c656d656e7465720000000000000000000000000000602082015250565b6000612df26032836120e9565b9150612dfd82612d96565b604082019050919050565b60006020820190508181036000830152612e2181612de5565b9050919050565b7f4e487b7100000000000000000000000000000000000000000000000000000000600052601260045260246000fd5b6000612e6282612190565b9150612e6d83612190565b9250828203905081811115612e8557612e84612a91565b5b92915050565b6000612e9682612190565b9150612ea183612190565b9250828201905080821115612eb957612eb8612a91565b5b92915050565b600081519050919050565b600082825260208201905092915050565b6000612ee682612ebf565b612ef08185612eca565b9350612f008185602086016120fa565b612f0981612124565b840191505092915050565b6000608082019050612f2960008301876120b4565b612f3660208301866120b4565b612f43604083018561225f565b8181036060830152612f558184612edb565b905095945050505050565b600081519050612f6f81611ff3565b92915050565b600060208284031215612f8b57612f8a611fbd565b5b6000612f9984828501612f60565b91505092915050565b7f4552433732313a206d696e7420746f20746865207a65726f2061646472657373600082015250565b6000612fd86020836120e9565b9150612fe382612fa2565b602082019050919050565b6000602082019050818103600083015261300781612fcb565b9050919050565b7f4552433732313a20746f6b656e20616c7265616479206d696e74656400000000600082015250565b6000613044601c836120e9565b915061304f8261300e565b602082019050919050565b6000602082019050818103600083015261307381613037565b905091905056fea26469706673582212206c5f95e25b1223083a6d0515395a1157f475f68d27a19272ccce3a67a4284a8d64736f6c63430008110033a26469706673582212208f234df77ff775e8840db042938189e5f7b1052f22c797c5864ff790d314abca64736f6c63430008110033",
  "immutableReferences": {},
  "source": "pragma solidity ^0.8.0;\n\nimport \"@openzeppelin/contracts/token/ERC721/ERC721.sol\";\nimport \"@openzeppelin/contracts/access/Ownable.sol\";\n\ncontract TicketNFT is ERC721, Ownable{\n    uint256 public maxAmount;\n    uint256 public totalAmount;\n    uint256 public price;\n    bool public isAvailable;\n    address public creator;\n    mapping(address=>uint256) userTickets;\n\n    constructor(string memory name, string memory symbol, uint256 _maxAmount, uint256 _price, address _owner) ERC721(name, symbol){\n        maxAmount=_maxAmount;\n        price = _price;\n        creator = _owner;\n    }\n    function setMaxAmount(uint256 max)external onlyOwner{\n        maxAmount=max;\n    }\n\n    function toggleIsAvailable() external {\n        require(creator==msg.sender);\n        isAvailable=!isAvailable;\n    }\n\n    function buyTicket() external payable{\n        require(isAvailable, 'Purchase is not available');\n        require(totalAmount<maxAmount, 'Sold out, sry m8');\n        require(msg.value==price, 'Incorrect amount');\n        require(userTickets[msg.sender]<1, 'You already have a ticket, m8');\n        userTickets[msg.sender]++;\n        totalAmount++;\n        uint256 ticketId=totalAmount;\n        _safeMint(msg.sender, ticketId);\n\n    }\n\n}\n\ncontract ticketCreator{\n    \n    function createTicket(string memory _name, string memory _symbol, uint256 _maxAmount, uint256 _price) \n    public\n    returns(TicketNFT tokenAddress){\n        return new TicketNFT(_name, _symbol,_maxAmount,_price, msg.sender);\n    }\n}",
  "sourcePath": "/Users/public_hysteria/vk_nft/contracts/nft.sol",
  "compiler": {
    "name": "solc",
    "version": "0.8.17+commit.8df45f5f.Emscripten.clang"
  },
  "schemaVersion": "3.4.11",
  "updatedAt": "2023-02-03T21:36:57.426Z",
  "devdoc": {
    "kind": "dev",
    "methods": {},
    "version": 1
  },
  "userdoc": {
    "kind": "user",
    "methods": {},
    "version": 1
  }
}