{
  "contractName": "ticketCreator",
  "abi": [
    {
      "inputs": [
        {
          "internalType": "uint256",
          "name": "",
          "type": "uint256"
        }
      ],
      "name": "allEvents",
      "outputs": [
        {
          "internalType": "contract TicketNFT",
          "name": "",
          "type": "address"
        }
      ],
      "stateMutability": "view",
      "type": "function"
    },
    {
      "inputs": [],
      "name": "indexOfDb",
      "outputs": [
        {
          "internalType": "uint256",
          "name": "",
          "type": "uint256"
        }
      ],
      "stateMutability": "view",
      "type": "function"
    },
    {
      "inputs": [],
      "name": "viewIndex",
      "outputs": [
        {
          "internalType": "uint256",
          "name": "",
          "type": "uint256"
        }
      ],
      "stateMutability": "view",
      "type": "function"
    },
    {
      "inputs": [
        {
          "internalType": "string",
          "name": "_name",
          "type": "string"
        },
        {
          "internalType": "string",
          "name": "_symbol",
          "type": "string"
        },
        {
          "internalType": "uint256",
          "name": "_maxAmount",
          "type": "uint256"
        },
        {
          "internalType": "uint256",
          "name": "_price",
          "type": "uint256"
        }
      ],
      "name": "createTicket",
      "outputs": [
        {
          "internalType": "contract TicketNFT",
          "name": "tokenAddress",
          "type": "address"
        }
      ],
      "stateMutability": "nonpayable",
      "type": "function"
    }
  ],
  "bytecode": "0x6080604052600060015534801561001557600080fd5b50614e5b806100256000396000f3fe60806040523480156200001157600080fd5b5060043610620000525760003560e01c80633bec5cff146200005757806393e9541d146200008d5780639bb9202b14620000c3578063c3c295ed14620000e5575b600080fd5b6200007560048036038101906200006f919062000266565b62000107565b60405162000084919062000323565b60405180910390f35b620000ab6004803603810190620000a59190620004a2565b6200013a565b604051620000ba919062000323565b60405180910390f35b620000cd620001f9565b604051620000dc919062000563565b60405180910390f35b620000ef620001ff565b604051620000fe919062000563565b60405180910390f35b60006020528060005260406000206000915054906101000a900473ffffffffffffffffffffffffffffffffffffffff1681565b6000808585858533604051620001509062000209565b620001609594939291906200062e565b604051809103906000f0801580156200017d573d6000803e3d6000fd5b50905080600080600154815260200190815260200160002060006101000a81548173ffffffffffffffffffffffffffffffffffffffff021916908373ffffffffffffffffffffffffffffffffffffffff16021790555060016000815480929190620001e890620006c8565b919050555080915050949350505050565b60015481565b6000600154905090565b614710806200071683390190565b6000604051905090565b600080fd5b600080fd5b6000819050919050565b62000240816200022b565b81146200024c57600080fd5b50565b600081359050620002608162000235565b92915050565b6000602082840312156200027f576200027e62000221565b5b60006200028f848285016200024f565b91505092915050565b600073ffffffffffffffffffffffffffffffffffffffff82169050919050565b6000819050919050565b6000620002e3620002dd620002d78462000298565b620002b8565b62000298565b9050919050565b6000620002f782620002c2565b9050919050565b60006200030b82620002ea565b9050919050565b6200031d81620002fe565b82525050565b60006020820190506200033a600083018462000312565b92915050565b600080fd5b600080fd5b6000601f19601f8301169050919050565b7f4e487b7100000000000000000000000000000000000000000000000000000000600052604160045260246000fd5b62000395826200034a565b810181811067ffffffffffffffff82111715620003b757620003b66200035b565b5b80604052505050565b6000620003cc62000217565b9050620003da82826200038a565b919050565b600067ffffffffffffffff821115620003fd57620003fc6200035b565b5b62000408826200034a565b9050602081019050919050565b82818337600083830152505050565b60006200043b6200043584620003df565b620003c0565b9050828152602081018484840111156200045a576200045962000345565b5b6200046784828562000415565b509392505050565b600082601f83011262000487576200048662000340565b5b81356200049984826020860162000424565b91505092915050565b60008060008060808587031215620004bf57620004be62000221565b5b600085013567ffffffffffffffff811115620004e057620004df62000226565b5b620004ee878288016200046f565b945050602085013567ffffffffffffffff81111562000512576200051162000226565b5b62000520878288016200046f565b935050604062000533878288016200024f565b925050606062000546878288016200024f565b91505092959194509250565b6200055d816200022b565b82525050565b60006020820190506200057a600083018462000552565b92915050565b600081519050919050565b600082825260208201905092915050565b60005b83811015620005bc5780820151818401526020810190506200059f565b60008484015250505050565b6000620005d58262000580565b620005e181856200058b565b9350620005f38185602086016200059c565b620005fe816200034a565b840191505092915050565b6000620006168262000298565b9050919050565b620006288162000609565b82525050565b600060a08201905081810360008301526200064a8188620005c8565b90508181036020830152620006608187620005c8565b905062000671604083018662000552565b62000680606083018562000552565b6200068f60808301846200061d565b9695505050505050565b7f4e487b7100000000000000000000000000000000000000000000000000000000600052601160045260246000fd5b6000620006d5826200022b565b91507fffffffffffffffffffffffffffffffffffffffffffffffffffffffffffffffff82036200070a576200070962000699565b5b60018201905091905056fe60806040523480156200001157600080fd5b506040516200471038038062004710833981810160405281019062000037919062000419565b848481600090816200004a919062000720565b5080600190816200005c919062000720565b5050506200007f620000736200011860201b60201c565b6200012060201b60201c565b83600d908162000090919062000720565b5084600c9081620000a2919062000720565b508260088190555081600a8190555080600b60016101000a81548173ffffffffffffffffffffffffffffffffffffffff021916908373ffffffffffffffffffffffffffffffffffffffff1602179055506001600b60006101000a81548160ff021916908315150217905550505050505062000807565b600033905090565b6000600760009054906101000a900473ffffffffffffffffffffffffffffffffffffffff16905081600760006101000a81548173ffffffffffffffffffffffffffffffffffffffff021916908373ffffffffffffffffffffffffffffffffffffffff1602179055508173ffffffffffffffffffffffffffffffffffffffff168173ffffffffffffffffffffffffffffffffffffffff167f8be0079c531659141344cd1fd0a4f28419497f9722a3daafe3b4186f6b6457e060405160405180910390a35050565b6000604051905090565b600080fd5b600080fd5b600080fd5b600080fd5b6000601f19601f8301169050919050565b7f4e487b7100000000000000000000000000000000000000000000000000000000600052604160045260246000fd5b6200024f8262000204565b810181811067ffffffffffffffff8211171562000271576200027062000215565b5b80604052505050565b600062000286620001e6565b905062000294828262000244565b919050565b600067ffffffffffffffff821115620002b757620002b662000215565b5b620002c28262000204565b9050602081019050919050565b60005b83811015620002ef578082015181840152602081019050620002d2565b60008484015250505050565b6000620003126200030c8462000299565b6200027a565b905082815260208101848484011115620003315762000330620001ff565b5b6200033e848285620002cf565b509392505050565b600082601f8301126200035e576200035d620001fa565b5b815162000370848260208601620002fb565b91505092915050565b6000819050919050565b6200038e8162000379565b81146200039a57600080fd5b50565b600081519050620003ae8162000383565b92915050565b600073ffffffffffffffffffffffffffffffffffffffff82169050919050565b6000620003e182620003b4565b9050919050565b620003f381620003d4565b8114620003ff57600080fd5b50565b6000815190506200041381620003e8565b92915050565b600080600080600060a08688031215620004385762000437620001f0565b5b600086015167ffffffffffffffff811115620004595762000458620001f5565b5b620004678882890162000346565b955050602086015167ffffffffffffffff8111156200048b576200048a620001f5565b5b620004998882890162000346565b9450506040620004ac888289016200039d565b9350506060620004bf888289016200039d565b9250506080620004d28882890162000402565b9150509295509295909350565b600081519050919050565b7f4e487b7100000000000000000000000000000000000000000000000000000000600052602260045260246000fd5b600060028204905060018216806200053257607f821691505b602082108103620005485762000547620004ea565b5b50919050565b60008190508160005260206000209050919050565b60006020601f8301049050919050565b600082821b905092915050565b600060088302620005b27fffffffffffffffffffffffffffffffffffffffffffffffffffffffffffffffff8262000573565b620005be868362000573565b95508019841693508086168417925050509392505050565b6000819050919050565b600062000601620005fb620005f58462000379565b620005d6565b62000379565b9050919050565b6000819050919050565b6200061d83620005e0565b620006356200062c8262000608565b84845462000580565b825550505050565b600090565b6200064c6200063d565b6200065981848462000612565b505050565b5b8181101562000681576200067560008262000642565b6001810190506200065f565b5050565b601f821115620006d0576200069a816200054e565b620006a58462000563565b81016020851015620006b5578190505b620006cd620006c48562000563565b8301826200065e565b50505b505050565b600082821c905092915050565b6000620006f560001984600802620006d5565b1980831691505092915050565b6000620007108383620006e2565b9150826002028217905092915050565b6200072b82620004df565b67ffffffffffffffff81111562000747576200074662000215565b5b62000753825462000519565b6200076082828562000685565b600060209050601f83116001811462000798576000841562000783578287015190505b6200078f858262000702565b865550620007ff565b601f198416620007a8866200054e565b60005b82811015620007d257848901518255600182019150602085019450602081019050620007ab565b86831015620007f25784890151620007ee601f891682620006e2565b8355505b6001600288020188555050505b505050505050565b613ef980620008176000396000f3fe60806040526004361061019c5760003560e01c8063715018a6116100ec578063af17dea61161008a578063e2b9e18611610064578063e2b9e186146105b6578063e985e9c5146105e1578063edca914c1461061e578063f2fde38b1461063c5761019c565b8063af17dea614610525578063b88d4fde14610550578063c87b56dd146105795761019c565b80638da5cb5b116100c65780638da5cb5b1461047b57806395d89b41146104a6578063a035b1fe146104d1578063a22cb465146104fc5761019c565b8063715018a6146103fc57806380f2abe314610413578063856c71dd146104505761019c565b80631a39d8ef116101595780634fe47f70116101335780634fe47f701461032e5780635f48f393146103575780636352211e1461038257806370a08231146103bf5761019c565b80631a39d8ef146102b157806323b872dd146102dc57806342842e0e146103055761019c565b806301ffc9a7146101a157806302214df2146101de57806302d05d3f146101f557806306fdde0314610220578063081812fc1461024b578063095ea7b314610288575b600080fd5b3480156101ad57600080fd5b506101c860048036038101906101c39190612618565b610665565b6040516101d59190612660565b60405180910390f35b3480156101ea57600080fd5b506101f3610747565b005b34801561020157600080fd5b5061020a6107cd565b60405161021791906126bc565b60405180910390f35b34801561022c57600080fd5b506102356107f3565b6040516102429190612767565b60405180910390f35b34801561025757600080fd5b50610272600480360381019061026d91906127bf565b610885565b60405161027f91906126bc565b60405180910390f35b34801561029457600080fd5b506102af60048036038101906102aa9190612818565b6108cb565b005b3480156102bd57600080fd5b506102c66109e2565b6040516102d39190612867565b60405180910390f35b3480156102e857600080fd5b5061030360048036038101906102fe9190612882565b6109e8565b005b34801561031157600080fd5b5061032c60048036038101906103279190612882565b610a48565b005b34801561033a57600080fd5b50610355600480360381019061035091906127bf565b610a68565b005b34801561036357600080fd5b5061036c610a7a565b6040516103799190612867565b60405180910390f35b34801561038e57600080fd5b506103a960048036038101906103a491906127bf565b610a80565b6040516103b691906126bc565b60405180910390f35b3480156103cb57600080fd5b506103e660048036038101906103e191906128d5565b610b06565b6040516103f39190612867565b60405180910390f35b34801561040857600080fd5b50610411610bbd565b005b34801561041f57600080fd5b5061043a600480360381019061043591906128d5565b610bd1565b6040516104479190612660565b60405180910390f35b34801561045c57600080fd5b50610465610c1c565b6040516104729190612660565b60405180910390f35b34801561048757600080fd5b50610490610c2f565b60405161049d91906126bc565b60405180910390f35b3480156104b257600080fd5b506104bb610c59565b6040516104c89190612767565b60405180910390f35b3480156104dd57600080fd5b506104e6610ceb565b6040516104f39190612867565b60405180910390f35b34801561050857600080fd5b50610523600480360381019061051e919061292e565b610cf1565b005b34801561053157600080fd5b5061053a610d07565b6040516105479190612767565b60405180910390f35b34801561055c57600080fd5b5061057760048036038101906105729190612aa3565b610d95565b005b34801561058557600080fd5b506105a0600480360381019061059b91906127bf565b610df7565b6040516105ad9190612767565b60405180910390f35b3480156105c257600080fd5b506105cb610f09565b6040516105d89190612767565b60405180910390f35b3480156105ed57600080fd5b5061060860048036038101906106039190612b26565b610f97565b6040516106159190612660565b60405180910390f35b61062661102b565b6040516106339190612767565b60405180910390f35b34801561064857600080fd5b50610663600480360381019061065e91906128d5565b61128b565b005b60007f80ac58cd000000000000000000000000000000000000000000000000000000007bffffffffffffffffffffffffffffffffffffffffffffffffffffffff1916827bffffffffffffffffffffffffffffffffffffffffffffffffffffffff1916148061073057507f5b5e139f000000000000000000000000000000000000000000000000000000007bffffffffffffffffffffffffffffffffffffffffffffffffffffffff1916827bffffffffffffffffffffffffffffffffffffffffffffffffffffffff1916145b80610740575061073f8261130e565b5b9050919050565b3373ffffffffffffffffffffffffffffffffffffffff16600b60019054906101000a900473ffffffffffffffffffffffffffffffffffffffff1673ffffffffffffffffffffffffffffffffffffffff16146107a157600080fd5b600b60009054906101000a900460ff1615600b60006101000a81548160ff021916908315150217905550565b600b60019054906101000a900473ffffffffffffffffffffffffffffffffffffffff1681565b60606000805461080290612b95565b80601f016020809104026020016040519081016040528092919081815260200182805461082e90612b95565b801561087b5780601f106108505761010080835404028352916020019161087b565b820191906000526020600020905b81548152906001019060200180831161085e57829003601f168201915b5050505050905090565b600061089082611378565b6004600083815260200190815260200160002060009054906101000a900473ffffffffffffffffffffffffffffffffffffffff169050919050565b60006108d682610a80565b90508073ffffffffffffffffffffffffffffffffffffffff168373ffffffffffffffffffffffffffffffffffffffff1603610946576040517f08c379a000000000000000000000000000000000000000000000000000000000815260040161093d90612c38565b60405180910390fd5b8073ffffffffffffffffffffffffffffffffffffffff166109656113c3565b73ffffffffffffffffffffffffffffffffffffffff16148061099457506109938161098e6113c3565b610f97565b5b6109d3576040517f08c379a00000000000000000000000000000000000000000000000000000000081526004016109ca90612cca565b60405180910390fd5b6109dd83836113cb565b505050565b60095481565b6109f96109f36113c3565b82611484565b610a38576040517f08c379a0000000000000000000000000000000000000000000000000000000008152600401610a2f90612d5c565b60405180910390fd5b610a43838383611519565b505050565b610a6383838360405180602001604052806000815250610d95565b505050565b610a70611812565b8060088190555050565b60085481565b600080610a8c83611890565b9050600073ffffffffffffffffffffffffffffffffffffffff168173ffffffffffffffffffffffffffffffffffffffff1603610afd576040517f08c379a0000000000000000000000000000000000000000000000000000000008152600401610af490612dc8565b60405180910390fd5b80915050919050565b60008073ffffffffffffffffffffffffffffffffffffffff168273ffffffffffffffffffffffffffffffffffffffff1603610b76576040517f08c379a0000000000000000000000000000000000000000000000000000000008152600401610b6d90612e5a565b60405180910390fd5b600360008373ffffffffffffffffffffffffffffffffffffffff1673ffffffffffffffffffffffffffffffffffffffff168152602001908152602001600020549050919050565b610bc5611812565b610bcf60006118cd565b565b600080600e60008473ffffffffffffffffffffffffffffffffffffffff1673ffffffffffffffffffffffffffffffffffffffff16815260200190815260200160002054119050919050565b600b60009054906101000a900460ff1681565b6000600760009054906101000a900473ffffffffffffffffffffffffffffffffffffffff16905090565b606060018054610c6890612b95565b80601f0160208091040260200160405190810160405280929190818152602001828054610c9490612b95565b8015610ce15780601f10610cb657610100808354040283529160200191610ce1565b820191906000526020600020905b815481529060010190602001808311610cc457829003601f168201915b5050505050905090565b600a5481565b610d03610cfc6113c3565b8383611993565b5050565b600d8054610d1490612b95565b80601f0160208091040260200160405190810160405280929190818152602001828054610d4090612b95565b8015610d8d5780601f10610d6257610100808354040283529160200191610d8d565b820191906000526020600020905b815481529060010190602001808311610d7057829003601f168201915b505050505081565b610da6610da06113c3565b83611484565b610de5576040517f08c379a0000000000000000000000000000000000000000000000000000000008152600401610ddc90612d5c565b60405180910390fd5b610df184848484611aff565b50505050565b6060610e0282611378565b6000600660008481526020019081526020016000208054610e2290612b95565b80601f0160208091040260200160405190810160405280929190818152602001828054610e4e90612b95565b8015610e9b5780601f10610e7057610100808354040283529160200191610e9b565b820191906000526020600020905b815481529060010190602001808311610e7e57829003601f168201915b505050505090506000610eac611b5b565b90506000815103610ec1578192505050610f04565b600082511115610ef6578082604051602001610ede929190612eb6565b60405160208183030381529060405292505050610f04565b610eff84611b72565b925050505b919050565b600c8054610f1690612b95565b80601f0160208091040260200160405190810160405280929190818152602001828054610f4290612b95565b8015610f8f5780601f10610f6457610100808354040283529160200191610f8f565b820191906000526020600020905b815481529060010190602001808311610f7257829003601f168201915b505050505081565b6000600560008473ffffffffffffffffffffffffffffffffffffffff1673ffffffffffffffffffffffffffffffffffffffff16815260200190815260200160002060008373ffffffffffffffffffffffffffffffffffffffff1673ffffffffffffffffffffffffffffffffffffffff16815260200190815260200160002060009054906101000a900460ff16905092915050565b6060600b60009054906101000a900460ff1661107c576040517f08c379a000000000000000000000000000000000000000000000000000000000815260040161107390612f26565b60405180910390fd5b600854600954106110c2576040517f08c379a00000000000000000000000000000000000000000000000000000000081526004016110b990612f92565b60405180910390fd5b600a54341015611107576040517f08c379a00000000000000000000000000000000000000000000000000000000081526004016110fe90612ffe565b60405180910390fd5b6001600e60003373ffffffffffffffffffffffffffffffffffffffff1673ffffffffffffffffffffffffffffffffffffffff1681526020019081526020016000205410611189576040517f08c379a00000000000000000000000000000000000000000000000000000000081526004016111809061306a565b60405180910390fd5b600e60003373ffffffffffffffffffffffffffffffffffffffff1673ffffffffffffffffffffffffffffffffffffffff16815260200190815260200160002060008154809291906111d9906130b9565b9190505550600960008154809291906111f1906130b9565b9190505550600060016009546112079190613101565b90506000611240600c61121984611bda565b3360405160200161122c939291906134e7565b604051602081830303815290604052611ca8565b905060008160405160200161125591906135b5565b60405160208183030381529060405290506112703384611e3f565b61127a8382611e5d565b61128383610df7565b935050505090565b611293611812565b600073ffffffffffffffffffffffffffffffffffffffff168173ffffffffffffffffffffffffffffffffffffffff1603611302576040517f08c379a00000000000000000000000000000000000000000000000000000000081526004016112f990613649565b60405180910390fd5b61130b816118cd565b50565b60007f01ffc9a7000000000000000000000000000000000000000000000000000000007bffffffffffffffffffffffffffffffffffffffffffffffffffffffff1916827bffffffffffffffffffffffffffffffffffffffffffffffffffffffff1916149050919050565b61138181611eca565b6113c0576040517f08c379a00000000000000000000000000000000000000000000000000000000081526004016113b790612dc8565b60405180910390fd5b50565b600033905090565b816004600083815260200190815260200160002060006101000a81548173ffffffffffffffffffffffffffffffffffffffff021916908373ffffffffffffffffffffffffffffffffffffffff160217905550808273ffffffffffffffffffffffffffffffffffffffff1661143e83610a80565b73ffffffffffffffffffffffffffffffffffffffff167f8c5be1e5ebec7d5bd14f71427d1e84f3dd0314c0f7b2291e5b200ac8c7c3b92560405160405180910390a45050565b60008061149083610a80565b90508073ffffffffffffffffffffffffffffffffffffffff168473ffffffffffffffffffffffffffffffffffffffff1614806114d257506114d18185610f97565b5b8061151057508373ffffffffffffffffffffffffffffffffffffffff166114f884610885565b73ffffffffffffffffffffffffffffffffffffffff16145b91505092915050565b8273ffffffffffffffffffffffffffffffffffffffff1661153982610a80565b73ffffffffffffffffffffffffffffffffffffffff161461158f576040517f08c379a0000000000000000000000000000000000000000000000000000000008152600401611586906136db565b60405180910390fd5b600073ffffffffffffffffffffffffffffffffffffffff168273ffffffffffffffffffffffffffffffffffffffff16036115fe576040517f08c379a00000000000000000000000000000000000000000000000000000000081526004016115f59061376d565b60405180910390fd5b61160b8383836001611f0b565b8273ffffffffffffffffffffffffffffffffffffffff1661162b82610a80565b73ffffffffffffffffffffffffffffffffffffffff1614611681576040517f08c379a0000000000000000000000000000000000000000000000000000000008152600401611678906136db565b60405180910390fd5b6004600082815260200190815260200160002060006101000a81549073ffffffffffffffffffffffffffffffffffffffff02191690556001600360008573ffffffffffffffffffffffffffffffffffffffff1673ffffffffffffffffffffffffffffffffffffffff168152602001908152602001600020600082825403925050819055506001600360008473ffffffffffffffffffffffffffffffffffffffff1673ffffffffffffffffffffffffffffffffffffffff16815260200190815260200160002060008282540192505081905550816002600083815260200190815260200160002060006101000a81548173ffffffffffffffffffffffffffffffffffffffff021916908373ffffffffffffffffffffffffffffffffffffffff160217905550808273ffffffffffffffffffffffffffffffffffffffff168473ffffffffffffffffffffffffffffffffffffffff167fddf252ad1be2c89b69c2b068fc378daa952ba7f163c4a11628f55a4df523b3ef60405160405180910390a461180d8383836001612031565b505050565b61181a6113c3565b73ffffffffffffffffffffffffffffffffffffffff16611838610c2f565b73ffffffffffffffffffffffffffffffffffffffff161461188e576040517f08c379a0000000000000000000000000000000000000000000000000000000008152600401611885906137d9565b60405180910390fd5b565b60006002600083815260200190815260200160002060009054906101000a900473ffffffffffffffffffffffffffffffffffffffff169050919050565b6000600760009054906101000a900473ffffffffffffffffffffffffffffffffffffffff16905081600760006101000a81548173ffffffffffffffffffffffffffffffffffffffff021916908373ffffffffffffffffffffffffffffffffffffffff1602179055508173ffffffffffffffffffffffffffffffffffffffff168173ffffffffffffffffffffffffffffffffffffffff167f8be0079c531659141344cd1fd0a4f28419497f9722a3daafe3b4186f6b6457e060405160405180910390a35050565b8173ffffffffffffffffffffffffffffffffffffffff168373ffffffffffffffffffffffffffffffffffffffff1603611a01576040517f08c379a00000000000000000000000000000000000000000000000000000000081526004016119f890613845565b60405180910390fd5b80600560008573ffffffffffffffffffffffffffffffffffffffff1673ffffffffffffffffffffffffffffffffffffffff16815260200190815260200160002060008473ffffffffffffffffffffffffffffffffffffffff1673ffffffffffffffffffffffffffffffffffffffff16815260200190815260200160002060006101000a81548160ff0219169083151502179055508173ffffffffffffffffffffffffffffffffffffffff168373ffffffffffffffffffffffffffffffffffffffff167f17307eab39ab6107e8899845ad3d59bd9653f200f220920489ca2b5937696c3183604051611af29190612660565b60405180910390a3505050565b611b0a848484611519565b611b1684848484612037565b611b55576040517f08c379a0000000000000000000000000000000000000000000000000000000008152600401611b4c906138d7565b60405180910390fd5b50505050565b606060405180602001604052806000815250905090565b6060611b7d82611378565b6000611b87611b5b565b90506000815111611ba75760405180602001604052806000815250611bd2565b80611bb184611bda565b604051602001611bc2929190612eb6565b6040516020818303038152906040525b915050919050565b606060006001611be9846121be565b01905060008167ffffffffffffffff811115611c0857611c07612978565b5b6040519080825280601f01601f191660200182016040528015611c3a5781602001600182028036833780820191505090505b509050600082602001820190505b600115611c9d578080600190039150507f3031323334353637383961626364656600000000000000000000000000000000600a86061a8153600a8581611c9157611c906138f7565b5b04945060008503611c48575b819350505050919050565b606060008251905060008103611cd05760405180602001604052806000815250915050611e3a565b60006003600283611ce19190613926565b611ceb919061395a565b6004611cf7919061398b565b90506000602082611d089190613926565b67ffffffffffffffff811115611d2157611d20612978565b5b6040519080825280601f01601f191660200182016040528015611d535781602001600182028036833780820191505090505b5090506000604051806060016040528060408152602001613e84604091399050600181016020830160005b86811015611df75760038101905062ffffff818a015116603f8160121c168401518060081b905060ff603f83600c1c1686015116810190508060081b905060ff603f8360061c1686015116810190508060081b905060ff603f831686015116810190508060e01b90508084526004840193505050611d7e565b506003860660018114611e115760028114611e2157611e2c565b613d3d60f01b6002830352611e2c565b603d60f81b60018303525b508484525050819450505050505b919050565b611e59828260405180602001604052806000815250612311565b5050565b611e6682611eca565b611ea5576040517f08c379a0000000000000000000000000000000000000000000000000000000008152600401611e9c90613a3f565b60405180910390fd5b80600660008481526020019081526020016000209081611ec59190613bf6565b505050565b60008073ffffffffffffffffffffffffffffffffffffffff16611eec83611890565b73ffffffffffffffffffffffffffffffffffffffff1614159050919050565b600181111561202b57600073ffffffffffffffffffffffffffffffffffffffff168473ffffffffffffffffffffffffffffffffffffffff1614611f9f5780600360008673ffffffffffffffffffffffffffffffffffffffff1673ffffffffffffffffffffffffffffffffffffffff1681526020019081526020016000206000828254611f979190613101565b925050819055505b600073ffffffffffffffffffffffffffffffffffffffff168373ffffffffffffffffffffffffffffffffffffffff161461202a5780600360008573ffffffffffffffffffffffffffffffffffffffff1673ffffffffffffffffffffffffffffffffffffffff16815260200190815260200160002060008282546120229190613926565b925050819055505b5b50505050565b50505050565b60006120588473ffffffffffffffffffffffffffffffffffffffff1661236c565b156121b1578373ffffffffffffffffffffffffffffffffffffffff1663150b7a026120816113c3565b8786866040518563ffffffff1660e01b81526004016120a39493929190613d1d565b6020604051808303816000875af19250505080156120df57506040513d601f19601f820116820180604052508101906120dc9190613d7e565b60015b612161573d806000811461210f576040519150601f19603f3d011682016040523d82523d6000602084013e612114565b606091505b506000815103612159576040517f08c379a0000000000000000000000000000000000000000000000000000000008152600401612150906138d7565b60405180910390fd5b805181602001fd5b63150b7a0260e01b7bffffffffffffffffffffffffffffffffffffffffffffffffffffffff1916817bffffffffffffffffffffffffffffffffffffffffffffffffffffffff1916149150506121b6565b600190505b949350505050565b600080600090507a184f03e93ff9f4daa797ed6e38ed64bf6a1f010000000000000000831061221c577a184f03e93ff9f4daa797ed6e38ed64bf6a1f0100000000000000008381612212576122116138f7565b5b0492506040810190505b6d04ee2d6d415b85acef81000000008310612259576d04ee2d6d415b85acef8100000000838161224f5761224e6138f7565b5b0492506020810190505b662386f26fc10000831061228857662386f26fc10000838161227e5761227d6138f7565b5b0492506010810190505b6305f5e10083106122b1576305f5e10083816122a7576122a66138f7565b5b0492506008810190505b61271083106122d65761271083816122cc576122cb6138f7565b5b0492506004810190505b606483106122f957606483816122ef576122ee6138f7565b5b0492506002810190505b600a8310612308576001810190505b80915050919050565b61231b838361238f565b6123286000848484612037565b612367576040517f08c379a000000000000000000000000000000000000000000000000000000000815260040161235e906138d7565b60405180910390fd5b505050565b6000808273ffffffffffffffffffffffffffffffffffffffff163b119050919050565b600073ffffffffffffffffffffffffffffffffffffffff168273ffffffffffffffffffffffffffffffffffffffff16036123fe576040517f08c379a00000000000000000000000000000000000000000000000000000000081526004016123f590613df7565b60405180910390fd5b61240781611eca565b15612447576040517f08c379a000000000000000000000000000000000000000000000000000000000815260040161243e90613e63565b60405180910390fd5b612455600083836001611f0b565b61245e81611eca565b1561249e576040517f08c379a000000000000000000000000000000000000000000000000000000000815260040161249590613e63565b60405180910390fd5b6001600360008473ffffffffffffffffffffffffffffffffffffffff1673ffffffffffffffffffffffffffffffffffffffff16815260200190815260200160002060008282540192505081905550816002600083815260200190815260200160002060006101000a81548173ffffffffffffffffffffffffffffffffffffffff021916908373ffffffffffffffffffffffffffffffffffffffff160217905550808273ffffffffffffffffffffffffffffffffffffffff16600073ffffffffffffffffffffffffffffffffffffffff167fddf252ad1be2c89b69c2b068fc378daa952ba7f163c4a11628f55a4df523b3ef60405160405180910390a46125a8600083836001612031565b5050565b6000604051905090565b600080fd5b600080fd5b60007fffffffff0000000000000000000000000000000000000000000000000000000082169050919050565b6125f5816125c0565b811461260057600080fd5b50565b600081359050612612816125ec565b92915050565b60006020828403121561262e5761262d6125b6565b5b600061263c84828501612603565b91505092915050565b60008115159050919050565b61265a81612645565b82525050565b60006020820190506126756000830184612651565b92915050565b600073ffffffffffffffffffffffffffffffffffffffff82169050919050565b60006126a68261267b565b9050919050565b6126b68161269b565b82525050565b60006020820190506126d160008301846126ad565b92915050565b600081519050919050565b600082825260208201905092915050565b60005b838110156127115780820151818401526020810190506126f6565b60008484015250505050565b6000601f19601f8301169050919050565b6000612739826126d7565b61274381856126e2565b93506127538185602086016126f3565b61275c8161271d565b840191505092915050565b60006020820190508181036000830152612781818461272e565b905092915050565b6000819050919050565b61279c81612789565b81146127a757600080fd5b50565b6000813590506127b981612793565b92915050565b6000602082840312156127d5576127d46125b6565b5b60006127e3848285016127aa565b91505092915050565b6127f58161269b565b811461280057600080fd5b50565b600081359050612812816127ec565b92915050565b6000806040838503121561282f5761282e6125b6565b5b600061283d85828601612803565b925050602061284e858286016127aa565b9150509250929050565b61286181612789565b82525050565b600060208201905061287c6000830184612858565b92915050565b60008060006060848603121561289b5761289a6125b6565b5b60006128a986828701612803565b93505060206128ba86828701612803565b92505060406128cb868287016127aa565b9150509250925092565b6000602082840312156128eb576128ea6125b6565b5b60006128f984828501612803565b91505092915050565b61290b81612645565b811461291657600080fd5b50565b60008135905061292881612902565b92915050565b60008060408385031215612945576129446125b6565b5b600061295385828601612803565b925050602061296485828601612919565b9150509250929050565b600080fd5b600080fd5b7f4e487b7100000000000000000000000000000000000000000000000000000000600052604160045260246000fd5b6129b08261271d565b810181811067ffffffffffffffff821117156129cf576129ce612978565b5b80604052505050565b60006129e26125ac565b90506129ee82826129a7565b919050565b600067ffffffffffffffff821115612a0e57612a0d612978565b5b612a178261271d565b9050602081019050919050565b82818337600083830152505050565b6000612a46612a41846129f3565b6129d8565b905082815260208101848484011115612a6257612a61612973565b5b612a6d848285612a24565b509392505050565b600082601f830112612a8a57612a8961296e565b5b8135612a9a848260208601612a33565b91505092915050565b60008060008060808587031215612abd57612abc6125b6565b5b6000612acb87828801612803565b9450506020612adc87828801612803565b9350506040612aed878288016127aa565b925050606085013567ffffffffffffffff811115612b0e57612b0d6125bb565b5b612b1a87828801612a75565b91505092959194509250565b60008060408385031215612b3d57612b3c6125b6565b5b6000612b4b85828601612803565b9250506020612b5c85828601612803565b9150509250929050565b7f4e487b7100000000000000000000000000000000000000000000000000000000600052602260045260246000fd5b60006002820490506001821680612bad57607f821691505b602082108103612bc057612bbf612b66565b5b50919050565b7f4552433732313a20617070726f76616c20746f2063757272656e74206f776e6560008201527f7200000000000000000000000000000000000000000000000000000000000000602082015250565b6000612c226021836126e2565b9150612c2d82612bc6565b604082019050919050565b60006020820190508181036000830152612c5181612c15565b9050919050565b7f4552433732313a20617070726f76652063616c6c6572206973206e6f7420746f60008201527f6b656e206f776e6572206f7220617070726f76656420666f7220616c6c000000602082015250565b6000612cb4603d836126e2565b9150612cbf82612c58565b604082019050919050565b60006020820190508181036000830152612ce381612ca7565b9050919050565b7f4552433732313a2063616c6c6572206973206e6f7420746f6b656e206f776e6560008201527f72206f7220617070726f76656400000000000000000000000000000000000000602082015250565b6000612d46602d836126e2565b9150612d5182612cea565b604082019050919050565b60006020820190508181036000830152612d7581612d39565b9050919050565b7f4552433732313a20696e76616c696420746f6b656e2049440000000000000000600082015250565b6000612db26018836126e2565b9150612dbd82612d7c565b602082019050919050565b60006020820190508181036000830152612de181612da5565b9050919050565b7f4552433732313a2061646472657373207a65726f206973206e6f74206120766160008201527f6c6964206f776e65720000000000000000000000000000000000000000000000602082015250565b6000612e446029836126e2565b9150612e4f82612de8565b604082019050919050565b60006020820190508181036000830152612e7381612e37565b9050919050565b600081905092915050565b6000612e90826126d7565b612e9a8185612e7a565b9350612eaa8185602086016126f3565b80840191505092915050565b6000612ec28285612e85565b9150612ece8284612e85565b91508190509392505050565b7f5075726368617365206973206e6f7420617661696c61626c6500000000000000600082015250565b6000612f106019836126e2565b9150612f1b82612eda565b602082019050919050565b60006020820190508181036000830152612f3f81612f03565b9050919050565b7f536f6c64206f75742c20737279206d3800000000000000000000000000000000600082015250565b6000612f7c6010836126e2565b9150612f8782612f46565b602082019050919050565b60006020820190508181036000830152612fab81612f6f565b9050919050565b7f496e636f727265637420616d6f756e7400000000000000000000000000000000600082015250565b6000612fe86010836126e2565b9150612ff382612fb2565b602082019050919050565b6000602082019050818103600083015261301781612fdb565b9050919050565b7f596f7520616c726561647920686176652061207469636b65742c206d38000000600082015250565b6000613054601d836126e2565b915061305f8261301e565b602082019050919050565b6000602082019050818103600083015261308381613047565b9050919050565b7f4e487b7100000000000000000000000000000000000000000000000000000000600052601160045260246000fd5b60006130c482612789565b91507fffffffffffffffffffffffffffffffffffffffffffffffffffffffffffffffff82036130f6576130f561308a565b5b600182019050919050565b600061310c82612789565b915061311783612789565b925082820390508181111561312f5761312e61308a565b5b92915050565b7f7b20226e616d65223a2022000000000000000000000000000000000000000000600082015250565b600061316b600b83612e7a565b915061317682613135565b600b82019050919050565b60008190508160005260206000209050919050565b600081546131a381612b95565b6131ad8186612e7a565b945060018216600081146131c857600181146131dd57613210565b60ff1983168652811515820286019350613210565b6131e685613181565b60005b83811015613208578154818901526001820191506020810190506131e9565b838801955050505b50505092915050565b7f2023000000000000000000000000000000000000000000000000000000000000600082015250565b600061324f600283612e7a565b915061325a82613219565b600282019050919050565b7f222c20226465736372697074696f6e223a20225469636b6574222c2000000000600082015250565b600061329b601c83612e7a565b91506132a682613265565b601c82019050919050565b7f22686f6c646572223a2022000000000000000000000000000000000000000000600082015250565b60006132e7600b83612e7a565b91506132f2826132b1565b600b82019050919050565b60008160601b9050919050565b6000613315826132fd565b9050919050565b60006133278261330a565b9050919050565b61333f61333a8261269b565b61331c565b82525050565b7f222c000000000000000000000000000000000000000000000000000000000000600082015250565b600061337b600283612e7a565b915061338682613345565b600282019050919050565b7f22747261697473223a205b7b202274726169745f74797065223a20224368656360008201527f6b656420496e222c202276616c7565223a202266616c736522207d2c207b202260208201527f74726169745f74797065223a2022507572636861736564222c202276616c756560408201527f223a20227472756522207d5d2c20000000000000000000000000000000000000606082015250565b6000613439606e83612e7a565b915061344482613391565b606e82019050919050565b7f22696d616765223a202268747470733a2f2f697066732e696f2f697066732f5160008201527f6d52633434557a5a776e756f6e6e7652446663694e4c70416b434a683467417960208201527f37654b797a724e554e457a667122207d00000000000000000000000000000000604082015250565b60006134d1605083612e7a565b91506134dc8261344f565b605082019050919050565b60006134f28261315e565b91506134fe8286613196565b915061350982613242565b91506135158285612e85565b91506135208261328e565b915061352b826132da565b9150613537828461332e565b6014820191506135468261336e565b91506135518261342c565b915061355c826134c4565b9150819050949350505050565b7f646174613a6170706c69636174696f6e2f6a736f6e3b6261736536342c000000600082015250565b600061359f601d83612e7a565b91506135aa82613569565b601d82019050919050565b60006135c082613592565b91506135cc8284612e85565b915081905092915050565b7f4f776e61626c653a206e6577206f776e657220697320746865207a65726f206160008201527f6464726573730000000000000000000000000000000000000000000000000000602082015250565b60006136336026836126e2565b915061363e826135d7565b604082019050919050565b6000602082019050818103600083015261366281613626565b9050919050565b7f4552433732313a207472616e736665722066726f6d20696e636f72726563742060008201527f6f776e6572000000000000000000000000000000000000000000000000000000602082015250565b60006136c56025836126e2565b91506136d082613669565b604082019050919050565b600060208201905081810360008301526136f4816136b8565b9050919050565b7f4552433732313a207472616e7366657220746f20746865207a65726f2061646460008201527f7265737300000000000000000000000000000000000000000000000000000000602082015250565b60006137576024836126e2565b9150613762826136fb565b604082019050919050565b600060208201905081810360008301526137868161374a565b9050919050565b7f4f776e61626c653a2063616c6c6572206973206e6f7420746865206f776e6572600082015250565b60006137c36020836126e2565b91506137ce8261378d565b602082019050919050565b600060208201905081810360008301526137f2816137b6565b9050919050565b7f4552433732313a20617070726f766520746f2063616c6c657200000000000000600082015250565b600061382f6019836126e2565b915061383a826137f9565b602082019050919050565b6000602082019050818103600083015261385e81613822565b9050919050565b7f4552433732313a207472616e7366657220746f206e6f6e20455243373231526560008201527f63656976657220696d706c656d656e7465720000000000000000000000000000602082015250565b60006138c16032836126e2565b91506138cc82613865565b604082019050919050565b600060208201905081810360008301526138f0816138b4565b9050919050565b7f4e487b7100000000000000000000000000000000000000000000000000000000600052601260045260246000fd5b600061393182612789565b915061393c83612789565b92508282019050808211156139545761395361308a565b5b92915050565b600061396582612789565b915061397083612789565b9250826139805761397f6138f7565b5b828204905092915050565b600061399682612789565b91506139a183612789565b92508282026139af81612789565b915082820484148315176139c6576139c561308a565b5b5092915050565b7f45524337323155524953746f726167653a2055524920736574206f66206e6f6e60008201527f6578697374656e7420746f6b656e000000000000000000000000000000000000602082015250565b6000613a29602e836126e2565b9150613a34826139cd565b604082019050919050565b60006020820190508181036000830152613a5881613a1c565b9050919050565b60006020601f8301049050919050565b600082821b905092915050565b600060088302613aac7fffffffffffffffffffffffffffffffffffffffffffffffffffffffffffffffff82613a6f565b613ab68683613a6f565b95508019841693508086168417925050509392505050565b6000819050919050565b6000613af3613aee613ae984612789565b613ace565b612789565b9050919050565b6000819050919050565b613b0d83613ad8565b613b21613b1982613afa565b848454613a7c565b825550505050565b600090565b613b36613b29565b613b41818484613b04565b505050565b5b81811015613b6557613b5a600082613b2e565b600181019050613b47565b5050565b601f821115613baa57613b7b81613181565b613b8484613a5f565b81016020851015613b93578190505b613ba7613b9f85613a5f565b830182613b46565b50505b505050565b600082821c905092915050565b6000613bcd60001984600802613baf565b1980831691505092915050565b6000613be68383613bbc565b9150826002028217905092915050565b613bff826126d7565b67ffffffffffffffff811115613c1857613c17612978565b5b613c228254612b95565b613c2d828285613b69565b600060209050601f831160018114613c605760008415613c4e578287015190505b613c588582613bda565b865550613cc0565b601f198416613c6e86613181565b60005b82811015613c9657848901518255600182019150602085019450602081019050613c71565b86831015613cb35784890151613caf601f891682613bbc565b8355505b6001600288020188555050505b505050505050565b600081519050919050565b600082825260208201905092915050565b6000613cef82613cc8565b613cf98185613cd3565b9350613d098185602086016126f3565b613d128161271d565b840191505092915050565b6000608082019050613d3260008301876126ad565b613d3f60208301866126ad565b613d4c6040830185612858565b8181036060830152613d5e8184613ce4565b905095945050505050565b600081519050613d78816125ec565b92915050565b600060208284031215613d9457613d936125b6565b5b6000613da284828501613d69565b91505092915050565b7f4552433732313a206d696e7420746f20746865207a65726f2061646472657373600082015250565b6000613de16020836126e2565b9150613dec82613dab565b602082019050919050565b60006020820190508181036000830152613e1081613dd4565b9050919050565b7f4552433732313a20746f6b656e20616c7265616479206d696e74656400000000600082015250565b6000613e4d601c836126e2565b9150613e5882613e17565b602082019050919050565b60006020820190508181036000830152613e7c81613e40565b905091905056fe4142434445464748494a4b4c4d4e4f505152535455565758595a6162636465666768696a6b6c6d6e6f707172737475767778797a303132333435363738392b2fa26469706673582212201427bbef5b7c7825739bf5bee46ae3c5e7be42cd1ab939838ec06ae6ad8b55da64736f6c63430008110033a2646970667358221220aaf4171f4495a802a3806d146aa0e39702b9625cb354132b04c42631dd4ac82764736f6c63430008110033",
  "immutableReferences": {},
  "source": "pragma solidity ^0.8.0;\n\nimport \"@openzeppelin/contracts/token/ERC721/ERC721.sol\";\nimport \"@openzeppelin/contracts/access/Ownable.sol\";\nimport \"@openzeppelin/contracts/token/ERC721/extensions/ERC721URIStorage.sol\";\nimport \"@openzeppelin/contracts/utils/Strings.sol\";\nimport \"./Base64.sol\";\n\ncontract TicketNFT is ERC721URIStorage, Ownable{\n    uint256 public maxAmount;\n    uint256 public totalAmount;\n    uint256 public price;\n    bool public isAvailable;\n    address public creator;\n    string public name_;\n    string public symbol_;\n    mapping(address=>uint256) userTickets;\n\n    constructor(string memory name, string memory symbol, uint256 _maxAmount, uint256 _price, address _owner) ERC721(name, symbol){\n        symbol_=symbol;\n        name_=name;\n        maxAmount=_maxAmount;\n        price = _price;\n        creator = _owner;\n        isAvailable=true;\n    }\n    function setMaxAmount(uint256 max)external onlyOwner{\n        maxAmount=max;\n    }\n\n    function toggleIsAvailable() external {\n        require(creator==msg.sender);\n        isAvailable=!isAvailable;\n    }\n\n    function buyTicket() external payable returns(string memory){\n        require(isAvailable, 'Purchase is not available');\n        require(totalAmount<maxAmount, 'Sold out, sry m8');\n        require(msg.value>=price, 'Incorrect amount');\n        require(userTickets[msg.sender]<1, 'You already have a ticket, m8');\n        userTickets[msg.sender]++;\n        totalAmount++;\n        uint256 ticketId=totalAmount-1;\n        string memory json = Base64.encode(\n            bytes(\n                string(\n                    abi.encodePacked(\n                        '{ \"name\": \"', name_,' #',\n                        Strings.toString(ticketId),\n                        '\", \"description\": \"Ticket\", ',\n                        '\"holder\": \"', msg.sender,'\",',\n                        '\"traits\": [{ \"trait_type\": \"Checked In\", \"value\": \"false\" }, { \"trait_type\": \"Purchased\", \"value\": \"true\" }], ',\n                        '\"image\": \"https://ipfs.io/ipfs/QmRc44UzZwnuonnvRDfciNLpAkCJh4gAy7eKyzrNUNEzfq\" }'\n                    )\n                )\n            )\n        );\n\n        string memory tokenURI = string(\n            abi.encodePacked(\"data:application/json;base64,\", json)\n        );\n        _safeMint(msg.sender, ticketId);\n         _setTokenURI(ticketId, tokenURI);\n         return super.tokenURI(ticketId);\n\n    }\n    function confirmOwnership(address addy) public view returns (bool) {\n        return userTickets[addy] > 0;\n    }\n\n}\n\ncontract ticketCreator{\n    mapping (uint256=>TicketNFT) public allEvents;\n    uint256 public indexOfDb=0;\n    function viewIndex() public view returns(uint256){\n        return indexOfDb;\n    }\n    function createTicket(string memory _name, string memory _symbol, uint256 _maxAmount, uint256 _price) \n    public\n    returns(TicketNFT tokenAddress){\n        TicketNFT nft = new TicketNFT(_name, _symbol,_maxAmount,_price, msg.sender);\n        allEvents[indexOfDb]=nft;\n        indexOfDb++;\n        return  nft;\n    }\n}",
  "sourcePath": "/Users/public_hysteria/vk_nft/contracts/nft.sol",
  "compiler": {
    "name": "solc",
    "version": "0.8.17+commit.8df45f5f.Emscripten.clang"
  },
  "schemaVersion": "3.4.11",
  "updatedAt": "2023-02-15T19:36:42.942Z",
  "devdoc": {
    "kind": "dev",
    "methods": {},
    "version": 1
  },
  "userdoc": {
    "kind": "user",
    "methods": {},
    "version": 1
  }
}