{
  "contractName": "TicketNFT",
  "abi": [
    {
      "inputs": [
        {
          "internalType": "string",
          "name": "name",
          "type": "string"
        },
        {
          "internalType": "string",
          "name": "symbol",
          "type": "string"
        },
        {
          "internalType": "uint256",
          "name": "_maxAmount",
          "type": "uint256"
        },
        {
          "internalType": "uint256",
          "name": "_price",
          "type": "uint256"
        },
        {
          "internalType": "address",
          "name": "_owner",
          "type": "address"
        }
      ],
      "stateMutability": "nonpayable",
      "type": "constructor"
    },
    {
      "anonymous": false,
      "inputs": [
        {
          "indexed": true,
          "internalType": "address",
          "name": "owner",
          "type": "address"
        },
        {
          "indexed": true,
          "internalType": "address",
          "name": "approved",
          "type": "address"
        },
        {
          "indexed": true,
          "internalType": "uint256",
          "name": "tokenId",
          "type": "uint256"
        }
      ],
      "name": "Approval",
      "type": "event"
    },
    {
      "anonymous": false,
      "inputs": [
        {
          "indexed": true,
          "internalType": "address",
          "name": "owner",
          "type": "address"
        },
        {
          "indexed": true,
          "internalType": "address",
          "name": "operator",
          "type": "address"
        },
        {
          "indexed": false,
          "internalType": "bool",
          "name": "approved",
          "type": "bool"
        }
      ],
      "name": "ApprovalForAll",
      "type": "event"
    },
    {
      "anonymous": false,
      "inputs": [
        {
          "indexed": true,
          "internalType": "address",
          "name": "previousOwner",
          "type": "address"
        },
        {
          "indexed": true,
          "internalType": "address",
          "name": "newOwner",
          "type": "address"
        }
      ],
      "name": "OwnershipTransferred",
      "type": "event"
    },
    {
      "anonymous": false,
      "inputs": [
        {
          "indexed": true,
          "internalType": "address",
          "name": "from",
          "type": "address"
        },
        {
          "indexed": true,
          "internalType": "address",
          "name": "to",
          "type": "address"
        },
        {
          "indexed": true,
          "internalType": "uint256",
          "name": "tokenId",
          "type": "uint256"
        }
      ],
      "name": "Transfer",
      "type": "event"
    },
    {
      "inputs": [
        {
          "internalType": "address",
          "name": "to",
          "type": "address"
        },
        {
          "internalType": "uint256",
          "name": "tokenId",
          "type": "uint256"
        }
      ],
      "name": "approve",
      "outputs": [],
      "stateMutability": "nonpayable",
      "type": "function"
    },
    {
      "inputs": [
        {
          "internalType": "address",
          "name": "owner",
          "type": "address"
        }
      ],
      "name": "balanceOf",
      "outputs": [
        {
          "internalType": "uint256",
          "name": "",
          "type": "uint256"
        }
      ],
      "stateMutability": "view",
      "type": "function"
    },
    {
      "inputs": [],
      "name": "creator",
      "outputs": [
        {
          "internalType": "address",
          "name": "",
          "type": "address"
        }
      ],
      "stateMutability": "view",
      "type": "function"
    },
    {
      "inputs": [
        {
          "internalType": "uint256",
          "name": "tokenId",
          "type": "uint256"
        }
      ],
      "name": "getApproved",
      "outputs": [
        {
          "internalType": "address",
          "name": "",
          "type": "address"
        }
      ],
      "stateMutability": "view",
      "type": "function"
    },
    {
      "inputs": [
        {
          "internalType": "address",
          "name": "owner",
          "type": "address"
        },
        {
          "internalType": "address",
          "name": "operator",
          "type": "address"
        }
      ],
      "name": "isApprovedForAll",
      "outputs": [
        {
          "internalType": "bool",
          "name": "",
          "type": "bool"
        }
      ],
      "stateMutability": "view",
      "type": "function"
    },
    {
      "inputs": [],
      "name": "isAvailable",
      "outputs": [
        {
          "internalType": "bool",
          "name": "",
          "type": "bool"
        }
      ],
      "stateMutability": "view",
      "type": "function"
    },
    {
      "inputs": [],
      "name": "maxAmount",
      "outputs": [
        {
          "internalType": "uint256",
          "name": "",
          "type": "uint256"
        }
      ],
      "stateMutability": "view",
      "type": "function"
    },
    {
      "inputs": [],
      "name": "name",
      "outputs": [
        {
          "internalType": "string",
          "name": "",
          "type": "string"
        }
      ],
      "stateMutability": "view",
      "type": "function"
    },
    {
      "inputs": [],
      "name": "name_",
      "outputs": [
        {
          "internalType": "string",
          "name": "",
          "type": "string"
        }
      ],
      "stateMutability": "view",
      "type": "function"
    },
    {
      "inputs": [],
      "name": "owner",
      "outputs": [
        {
          "internalType": "address",
          "name": "",
          "type": "address"
        }
      ],
      "stateMutability": "view",
      "type": "function"
    },
    {
      "inputs": [
        {
          "internalType": "uint256",
          "name": "tokenId",
          "type": "uint256"
        }
      ],
      "name": "ownerOf",
      "outputs": [
        {
          "internalType": "address",
          "name": "",
          "type": "address"
        }
      ],
      "stateMutability": "view",
      "type": "function"
    },
    {
      "inputs": [],
      "name": "price",
      "outputs": [
        {
          "internalType": "uint256",
          "name": "",
          "type": "uint256"
        }
      ],
      "stateMutability": "view",
      "type": "function"
    },
    {
      "inputs": [],
      "name": "renounceOwnership",
      "outputs": [],
      "stateMutability": "nonpayable",
      "type": "function"
    },
    {
      "inputs": [
        {
          "internalType": "address",
          "name": "from",
          "type": "address"
        },
        {
          "internalType": "address",
          "name": "to",
          "type": "address"
        },
        {
          "internalType": "uint256",
          "name": "tokenId",
          "type": "uint256"
        }
      ],
      "name": "safeTransferFrom",
      "outputs": [],
      "stateMutability": "nonpayable",
      "type": "function"
    },
    {
      "inputs": [
        {
          "internalType": "address",
          "name": "from",
          "type": "address"
        },
        {
          "internalType": "address",
          "name": "to",
          "type": "address"
        },
        {
          "internalType": "uint256",
          "name": "tokenId",
          "type": "uint256"
        },
        {
          "internalType": "bytes",
          "name": "data",
          "type": "bytes"
        }
      ],
      "name": "safeTransferFrom",
      "outputs": [],
      "stateMutability": "nonpayable",
      "type": "function"
    },
    {
      "inputs": [
        {
          "internalType": "address",
          "name": "operator",
          "type": "address"
        },
        {
          "internalType": "bool",
          "name": "approved",
          "type": "bool"
        }
      ],
      "name": "setApprovalForAll",
      "outputs": [],
      "stateMutability": "nonpayable",
      "type": "function"
    },
    {
      "inputs": [
        {
          "internalType": "bytes4",
          "name": "interfaceId",
          "type": "bytes4"
        }
      ],
      "name": "supportsInterface",
      "outputs": [
        {
          "internalType": "bool",
          "name": "",
          "type": "bool"
        }
      ],
      "stateMutability": "view",
      "type": "function"
    },
    {
      "inputs": [],
      "name": "symbol",
      "outputs": [
        {
          "internalType": "string",
          "name": "",
          "type": "string"
        }
      ],
      "stateMutability": "view",
      "type": "function"
    },
    {
      "inputs": [],
      "name": "symbol_",
      "outputs": [
        {
          "internalType": "string",
          "name": "",
          "type": "string"
        }
      ],
      "stateMutability": "view",
      "type": "function"
    },
    {
      "inputs": [
        {
          "internalType": "uint256",
          "name": "tokenId",
          "type": "uint256"
        }
      ],
      "name": "tokenURI",
      "outputs": [
        {
          "internalType": "string",
          "name": "",
          "type": "string"
        }
      ],
      "stateMutability": "view",
      "type": "function"
    },
    {
      "inputs": [],
      "name": "totalAmount",
      "outputs": [
        {
          "internalType": "uint256",
          "name": "",
          "type": "uint256"
        }
      ],
      "stateMutability": "view",
      "type": "function"
    },
    {
      "inputs": [
        {
          "internalType": "address",
          "name": "from",
          "type": "address"
        },
        {
          "internalType": "address",
          "name": "to",
          "type": "address"
        },
        {
          "internalType": "uint256",
          "name": "tokenId",
          "type": "uint256"
        }
      ],
      "name": "transferFrom",
      "outputs": [],
      "stateMutability": "nonpayable",
      "type": "function"
    },
    {
      "inputs": [
        {
          "internalType": "address",
          "name": "newOwner",
          "type": "address"
        }
      ],
      "name": "transferOwnership",
      "outputs": [],
      "stateMutability": "nonpayable",
      "type": "function"
    },
    {
      "inputs": [
        {
          "internalType": "uint256",
          "name": "max",
          "type": "uint256"
        }
      ],
      "name": "setMaxAmount",
      "outputs": [],
      "stateMutability": "nonpayable",
      "type": "function"
    },
    {
      "inputs": [],
      "name": "toggleIsAvailable",
      "outputs": [],
      "stateMutability": "nonpayable",
      "type": "function"
    },
    {
      "inputs": [],
      "name": "buyTicket",
      "outputs": [],
      "stateMutability": "payable",
      "type": "function"
    },
    {
      "inputs": [
        {
          "internalType": "address",
          "name": "addy",
          "type": "address"
        }
      ],
      "name": "confirmOwnership",
      "outputs": [
        {
          "internalType": "bool",
          "name": "",
          "type": "bool"
        }
      ],
      "stateMutability": "view",
      "type": "function"
    }
  ],
  "bytecode": "0x60806040523480156200001157600080fd5b50604051620046d2380380620046d28339818101604052810190620000379190620003fe565b848481600090816200004a919062000705565b5080600190816200005c919062000705565b5050506200007f62000073620000fd60201b60201c565b6200010560201b60201c565b83600d908162000090919062000705565b5084600c9081620000a2919062000705565b508260088190555081600a8190555080600b60016101000a81548173ffffffffffffffffffffffffffffffffffffffff021916908373ffffffffffffffffffffffffffffffffffffffff1602179055505050505050620007ec565b600033905090565b6000600760009054906101000a900473ffffffffffffffffffffffffffffffffffffffff16905081600760006101000a81548173ffffffffffffffffffffffffffffffffffffffff021916908373ffffffffffffffffffffffffffffffffffffffff1602179055508173ffffffffffffffffffffffffffffffffffffffff168173ffffffffffffffffffffffffffffffffffffffff167f8be0079c531659141344cd1fd0a4f28419497f9722a3daafe3b4186f6b6457e060405160405180910390a35050565b6000604051905090565b600080fd5b600080fd5b600080fd5b600080fd5b6000601f19601f8301169050919050565b7f4e487b7100000000000000000000000000000000000000000000000000000000600052604160045260246000fd5b6200023482620001e9565b810181811067ffffffffffffffff82111715620002565762000255620001fa565b5b80604052505050565b60006200026b620001cb565b905062000279828262000229565b919050565b600067ffffffffffffffff8211156200029c576200029b620001fa565b5b620002a782620001e9565b9050602081019050919050565b60005b83811015620002d4578082015181840152602081019050620002b7565b60008484015250505050565b6000620002f7620002f1846200027e565b6200025f565b905082815260208101848484011115620003165762000315620001e4565b5b62000323848285620002b4565b509392505050565b600082601f830112620003435762000342620001df565b5b815162000355848260208601620002e0565b91505092915050565b6000819050919050565b62000373816200035e565b81146200037f57600080fd5b50565b600081519050620003938162000368565b92915050565b600073ffffffffffffffffffffffffffffffffffffffff82169050919050565b6000620003c68262000399565b9050919050565b620003d881620003b9565b8114620003e457600080fd5b50565b600081519050620003f881620003cd565b92915050565b600080600080600060a086880312156200041d576200041c620001d5565b5b600086015167ffffffffffffffff8111156200043e576200043d620001da565b5b6200044c888289016200032b565b955050602086015167ffffffffffffffff81111562000470576200046f620001da565b5b6200047e888289016200032b565b9450506040620004918882890162000382565b9350506060620004a48882890162000382565b9250506080620004b788828901620003e7565b9150509295509295909350565b600081519050919050565b7f4e487b7100000000000000000000000000000000000000000000000000000000600052602260045260246000fd5b600060028204905060018216806200051757607f821691505b6020821081036200052d576200052c620004cf565b5b50919050565b60008190508160005260206000209050919050565b60006020601f8301049050919050565b600082821b905092915050565b600060088302620005977fffffffffffffffffffffffffffffffffffffffffffffffffffffffffffffffff8262000558565b620005a3868362000558565b95508019841693508086168417925050509392505050565b6000819050919050565b6000620005e6620005e0620005da846200035e565b620005bb565b6200035e565b9050919050565b6000819050919050565b6200060283620005c5565b6200061a6200061182620005ed565b84845462000565565b825550505050565b600090565b6200063162000622565b6200063e818484620005f7565b505050565b5b8181101562000666576200065a60008262000627565b60018101905062000644565b5050565b601f821115620006b5576200067f8162000533565b6200068a8462000548565b810160208510156200069a578190505b620006b2620006a98562000548565b83018262000643565b50505b505050565b600082821c905092915050565b6000620006da60001984600802620006ba565b1980831691505092915050565b6000620006f58383620006c7565b9150826002028217905092915050565b6200071082620004c4565b67ffffffffffffffff8111156200072c576200072b620001fa565b5b620007388254620004fe565b620007458282856200066a565b600060209050601f8311600181146200077d576000841562000768578287015190505b620007748582620006e7565b865550620007e4565b601f1984166200078d8662000533565b60005b82811015620007b75784890151825560018201915060208501945060208101905062000790565b86831015620007d75784890151620007d3601f891682620006c7565b8355505b6001600288020188555050505b505050505050565b613ed680620007fc6000396000f3fe60806040526004361061019c5760003560e01c8063715018a6116100ec578063af17dea61161008a578063e2b9e18611610064578063e2b9e186146105b6578063e985e9c5146105e1578063edca914c1461061e578063f2fde38b146106285761019c565b8063af17dea614610525578063b88d4fde14610550578063c87b56dd146105795761019c565b80638da5cb5b116100c65780638da5cb5b1461047b57806395d89b41146104a6578063a035b1fe146104d1578063a22cb465146104fc5761019c565b8063715018a6146103fc57806380f2abe314610413578063856c71dd146104505761019c565b80631a39d8ef116101595780634fe47f70116101335780634fe47f701461032e5780635f48f393146103575780636352211e1461038257806370a08231146103bf5761019c565b80631a39d8ef146102b157806323b872dd146102dc57806342842e0e146103055761019c565b806301ffc9a7146101a157806302214df2146101de57806302d05d3f146101f557806306fdde0314610220578063081812fc1461024b578063095ea7b314610288575b600080fd5b3480156101ad57600080fd5b506101c860048036038101906101c391906125f5565b610651565b6040516101d5919061263d565b60405180910390f35b3480156101ea57600080fd5b506101f3610733565b005b34801561020157600080fd5b5061020a6107b9565b6040516102179190612699565b60405180910390f35b34801561022c57600080fd5b506102356107df565b6040516102429190612744565b60405180910390f35b34801561025757600080fd5b50610272600480360381019061026d919061279c565b610871565b60405161027f9190612699565b60405180910390f35b34801561029457600080fd5b506102af60048036038101906102aa91906127f5565b6108b7565b005b3480156102bd57600080fd5b506102c66109ce565b6040516102d39190612844565b60405180910390f35b3480156102e857600080fd5b5061030360048036038101906102fe919061285f565b6109d4565b005b34801561031157600080fd5b5061032c6004803603810190610327919061285f565b610a34565b005b34801561033a57600080fd5b506103556004803603810190610350919061279c565b610a54565b005b34801561036357600080fd5b5061036c610a66565b6040516103799190612844565b60405180910390f35b34801561038e57600080fd5b506103a960048036038101906103a4919061279c565b610a6c565b6040516103b69190612699565b60405180910390f35b3480156103cb57600080fd5b506103e660048036038101906103e191906128b2565b610af2565b6040516103f39190612844565b60405180910390f35b34801561040857600080fd5b50610411610ba9565b005b34801561041f57600080fd5b5061043a600480360381019061043591906128b2565b610bbd565b604051610447919061263d565b60405180910390f35b34801561045c57600080fd5b50610465610c08565b604051610472919061263d565b60405180910390f35b34801561048757600080fd5b50610490610c1b565b60405161049d9190612699565b60405180910390f35b3480156104b257600080fd5b506104bb610c45565b6040516104c89190612744565b60405180910390f35b3480156104dd57600080fd5b506104e6610cd7565b6040516104f39190612844565b60405180910390f35b34801561050857600080fd5b50610523600480360381019061051e919061290b565b610cdd565b005b34801561053157600080fd5b5061053a610cf3565b6040516105479190612744565b60405180910390f35b34801561055c57600080fd5b5061057760048036038101906105729190612a80565b610d81565b005b34801561058557600080fd5b506105a0600480360381019061059b919061279c565b610de3565b6040516105ad9190612744565b60405180910390f35b3480156105c257600080fd5b506105cb610ef5565b6040516105d89190612744565b60405180910390f35b3480156105ed57600080fd5b5061060860048036038101906106039190612b03565b610f83565b604051610615919061263d565b60405180910390f35b610626611017565b005b34801561063457600080fd5b5061064f600480360381019061064a91906128b2565b611268565b005b60007f80ac58cd000000000000000000000000000000000000000000000000000000007bffffffffffffffffffffffffffffffffffffffffffffffffffffffff1916827bffffffffffffffffffffffffffffffffffffffffffffffffffffffff1916148061071c57507f5b5e139f000000000000000000000000000000000000000000000000000000007bffffffffffffffffffffffffffffffffffffffffffffffffffffffff1916827bffffffffffffffffffffffffffffffffffffffffffffffffffffffff1916145b8061072c575061072b826112eb565b5b9050919050565b3373ffffffffffffffffffffffffffffffffffffffff16600b60019054906101000a900473ffffffffffffffffffffffffffffffffffffffff1673ffffffffffffffffffffffffffffffffffffffff161461078d57600080fd5b600b60009054906101000a900460ff1615600b60006101000a81548160ff021916908315150217905550565b600b60019054906101000a900473ffffffffffffffffffffffffffffffffffffffff1681565b6060600080546107ee90612b72565b80601f016020809104026020016040519081016040528092919081815260200182805461081a90612b72565b80156108675780601f1061083c57610100808354040283529160200191610867565b820191906000526020600020905b81548152906001019060200180831161084a57829003601f168201915b5050505050905090565b600061087c82611355565b6004600083815260200190815260200160002060009054906101000a900473ffffffffffffffffffffffffffffffffffffffff169050919050565b60006108c282610a6c565b90508073ffffffffffffffffffffffffffffffffffffffff168373ffffffffffffffffffffffffffffffffffffffff1603610932576040517f08c379a000000000000000000000000000000000000000000000000000000000815260040161092990612c15565b60405180910390fd5b8073ffffffffffffffffffffffffffffffffffffffff166109516113a0565b73ffffffffffffffffffffffffffffffffffffffff161480610980575061097f8161097a6113a0565b610f83565b5b6109bf576040517f08c379a00000000000000000000000000000000000000000000000000000000081526004016109b690612ca7565b60405180910390fd5b6109c983836113a8565b505050565b60095481565b6109e56109df6113a0565b82611461565b610a24576040517f08c379a0000000000000000000000000000000000000000000000000000000008152600401610a1b90612d39565b60405180910390fd5b610a2f8383836114f6565b505050565b610a4f83838360405180602001604052806000815250610d81565b505050565b610a5c6117ef565b8060088190555050565b60085481565b600080610a788361186d565b9050600073ffffffffffffffffffffffffffffffffffffffff168173ffffffffffffffffffffffffffffffffffffffff1603610ae9576040517f08c379a0000000000000000000000000000000000000000000000000000000008152600401610ae090612da5565b60405180910390fd5b80915050919050565b60008073ffffffffffffffffffffffffffffffffffffffff168273ffffffffffffffffffffffffffffffffffffffff1603610b62576040517f08c379a0000000000000000000000000000000000000000000000000000000008152600401610b5990612e37565b60405180910390fd5b600360008373ffffffffffffffffffffffffffffffffffffffff1673ffffffffffffffffffffffffffffffffffffffff168152602001908152602001600020549050919050565b610bb16117ef565b610bbb60006118aa565b565b600080600e60008473ffffffffffffffffffffffffffffffffffffffff1673ffffffffffffffffffffffffffffffffffffffff16815260200190815260200160002054119050919050565b600b60009054906101000a900460ff1681565b6000600760009054906101000a900473ffffffffffffffffffffffffffffffffffffffff16905090565b606060018054610c5490612b72565b80601f0160208091040260200160405190810160405280929190818152602001828054610c8090612b72565b8015610ccd5780601f10610ca257610100808354040283529160200191610ccd565b820191906000526020600020905b815481529060010190602001808311610cb057829003601f168201915b5050505050905090565b600a5481565b610cef610ce86113a0565b8383611970565b5050565b600d8054610d0090612b72565b80601f0160208091040260200160405190810160405280929190818152602001828054610d2c90612b72565b8015610d795780601f10610d4e57610100808354040283529160200191610d79565b820191906000526020600020905b815481529060010190602001808311610d5c57829003601f168201915b505050505081565b610d92610d8c6113a0565b83611461565b610dd1576040517f08c379a0000000000000000000000000000000000000000000000000000000008152600401610dc890612d39565b60405180910390fd5b610ddd84848484611adc565b50505050565b6060610dee82611355565b6000600660008481526020019081526020016000208054610e0e90612b72565b80601f0160208091040260200160405190810160405280929190818152602001828054610e3a90612b72565b8015610e875780601f10610e5c57610100808354040283529160200191610e87565b820191906000526020600020905b815481529060010190602001808311610e6a57829003601f168201915b505050505090506000610e98611b38565b90506000815103610ead578192505050610ef0565b600082511115610ee2578082604051602001610eca929190612e93565b60405160208183030381529060405292505050610ef0565b610eeb84611b4f565b925050505b919050565b600c8054610f0290612b72565b80601f0160208091040260200160405190810160405280929190818152602001828054610f2e90612b72565b8015610f7b5780601f10610f5057610100808354040283529160200191610f7b565b820191906000526020600020905b815481529060010190602001808311610f5e57829003601f168201915b505050505081565b6000600560008473ffffffffffffffffffffffffffffffffffffffff1673ffffffffffffffffffffffffffffffffffffffff16815260200190815260200160002060008373ffffffffffffffffffffffffffffffffffffffff1673ffffffffffffffffffffffffffffffffffffffff16815260200190815260200160002060009054906101000a900460ff16905092915050565b600b60009054906101000a900460ff16611066576040517f08c379a000000000000000000000000000000000000000000000000000000000815260040161105d90612f03565b60405180910390fd5b600854600954106110ac576040517f08c379a00000000000000000000000000000000000000000000000000000000081526004016110a390612f6f565b60405180910390fd5b600a5434146110f0576040517f08c379a00000000000000000000000000000000000000000000000000000000081526004016110e790612fdb565b60405180910390fd5b6001600e60003373ffffffffffffffffffffffffffffffffffffffff1673ffffffffffffffffffffffffffffffffffffffff1681526020019081526020016000205410611172576040517f08c379a000000000000000000000000000000000000000000000000000000000815260040161116990613047565b60405180910390fd5b600e60003373ffffffffffffffffffffffffffffffffffffffff1673ffffffffffffffffffffffffffffffffffffffff16815260200190815260200160002060008154809291906111c290613096565b9190505550600960008154809291906111da90613096565b9190505550600060016009546111f091906130de565b90506000611229600c61120284611bb7565b33604051602001611215939291906134c4565b604051602081830303815290604052611c85565b905060008160405160200161123e9190613592565b60405160208183030381529060405290506112593384611e1c565b6112638382611e3a565b505050565b6112706117ef565b600073ffffffffffffffffffffffffffffffffffffffff168173ffffffffffffffffffffffffffffffffffffffff16036112df576040517f08c379a00000000000000000000000000000000000000000000000000000000081526004016112d690613626565b60405180910390fd5b6112e8816118aa565b50565b60007f01ffc9a7000000000000000000000000000000000000000000000000000000007bffffffffffffffffffffffffffffffffffffffffffffffffffffffff1916827bffffffffffffffffffffffffffffffffffffffffffffffffffffffff1916149050919050565b61135e81611ea7565b61139d576040517f08c379a000000000000000000000000000000000000000000000000000000000815260040161139490612da5565b60405180910390fd5b50565b600033905090565b816004600083815260200190815260200160002060006101000a81548173ffffffffffffffffffffffffffffffffffffffff021916908373ffffffffffffffffffffffffffffffffffffffff160217905550808273ffffffffffffffffffffffffffffffffffffffff1661141b83610a6c565b73ffffffffffffffffffffffffffffffffffffffff167f8c5be1e5ebec7d5bd14f71427d1e84f3dd0314c0f7b2291e5b200ac8c7c3b92560405160405180910390a45050565b60008061146d83610a6c565b90508073ffffffffffffffffffffffffffffffffffffffff168473ffffffffffffffffffffffffffffffffffffffff1614806114af57506114ae8185610f83565b5b806114ed57508373ffffffffffffffffffffffffffffffffffffffff166114d584610871565b73ffffffffffffffffffffffffffffffffffffffff16145b91505092915050565b8273ffffffffffffffffffffffffffffffffffffffff1661151682610a6c565b73ffffffffffffffffffffffffffffffffffffffff161461156c576040517f08c379a0000000000000000000000000000000000000000000000000000000008152600401611563906136b8565b60405180910390fd5b600073ffffffffffffffffffffffffffffffffffffffff168273ffffffffffffffffffffffffffffffffffffffff16036115db576040517f08c379a00000000000000000000000000000000000000000000000000000000081526004016115d29061374a565b60405180910390fd5b6115e88383836001611ee8565b8273ffffffffffffffffffffffffffffffffffffffff1661160882610a6c565b73ffffffffffffffffffffffffffffffffffffffff161461165e576040517f08c379a0000000000000000000000000000000000000000000000000000000008152600401611655906136b8565b60405180910390fd5b6004600082815260200190815260200160002060006101000a81549073ffffffffffffffffffffffffffffffffffffffff02191690556001600360008573ffffffffffffffffffffffffffffffffffffffff1673ffffffffffffffffffffffffffffffffffffffff168152602001908152602001600020600082825403925050819055506001600360008473ffffffffffffffffffffffffffffffffffffffff1673ffffffffffffffffffffffffffffffffffffffff16815260200190815260200160002060008282540192505081905550816002600083815260200190815260200160002060006101000a81548173ffffffffffffffffffffffffffffffffffffffff021916908373ffffffffffffffffffffffffffffffffffffffff160217905550808273ffffffffffffffffffffffffffffffffffffffff168473ffffffffffffffffffffffffffffffffffffffff167fddf252ad1be2c89b69c2b068fc378daa952ba7f163c4a11628f55a4df523b3ef60405160405180910390a46117ea838383600161200e565b505050565b6117f76113a0565b73ffffffffffffffffffffffffffffffffffffffff16611815610c1b565b73ffffffffffffffffffffffffffffffffffffffff161461186b576040517f08c379a0000000000000000000000000000000000000000000000000000000008152600401611862906137b6565b60405180910390fd5b565b60006002600083815260200190815260200160002060009054906101000a900473ffffffffffffffffffffffffffffffffffffffff169050919050565b6000600760009054906101000a900473ffffffffffffffffffffffffffffffffffffffff16905081600760006101000a81548173ffffffffffffffffffffffffffffffffffffffff021916908373ffffffffffffffffffffffffffffffffffffffff1602179055508173ffffffffffffffffffffffffffffffffffffffff168173ffffffffffffffffffffffffffffffffffffffff167f8be0079c531659141344cd1fd0a4f28419497f9722a3daafe3b4186f6b6457e060405160405180910390a35050565b8173ffffffffffffffffffffffffffffffffffffffff168373ffffffffffffffffffffffffffffffffffffffff16036119de576040517f08c379a00000000000000000000000000000000000000000000000000000000081526004016119d590613822565b60405180910390fd5b80600560008573ffffffffffffffffffffffffffffffffffffffff1673ffffffffffffffffffffffffffffffffffffffff16815260200190815260200160002060008473ffffffffffffffffffffffffffffffffffffffff1673ffffffffffffffffffffffffffffffffffffffff16815260200190815260200160002060006101000a81548160ff0219169083151502179055508173ffffffffffffffffffffffffffffffffffffffff168373ffffffffffffffffffffffffffffffffffffffff167f17307eab39ab6107e8899845ad3d59bd9653f200f220920489ca2b5937696c3183604051611acf919061263d565b60405180910390a3505050565b611ae78484846114f6565b611af384848484612014565b611b32576040517f08c379a0000000000000000000000000000000000000000000000000000000008152600401611b29906138b4565b60405180910390fd5b50505050565b606060405180602001604052806000815250905090565b6060611b5a82611355565b6000611b64611b38565b90506000815111611b845760405180602001604052806000815250611baf565b80611b8e84611bb7565b604051602001611b9f929190612e93565b6040516020818303038152906040525b915050919050565b606060006001611bc68461219b565b01905060008167ffffffffffffffff811115611be557611be4612955565b5b6040519080825280601f01601f191660200182016040528015611c175781602001600182028036833780820191505090505b509050600082602001820190505b600115611c7a578080600190039150507f3031323334353637383961626364656600000000000000000000000000000000600a86061a8153600a8581611c6e57611c6d6138d4565b5b04945060008503611c25575b819350505050919050565b606060008251905060008103611cad5760405180602001604052806000815250915050611e17565b60006003600283611cbe9190613903565b611cc89190613937565b6004611cd49190613968565b90506000602082611ce59190613903565b67ffffffffffffffff811115611cfe57611cfd612955565b5b6040519080825280601f01601f191660200182016040528015611d305781602001600182028036833780820191505090505b5090506000604051806060016040528060408152602001613e61604091399050600181016020830160005b86811015611dd45760038101905062ffffff818a015116603f8160121c168401518060081b905060ff603f83600c1c1686015116810190508060081b905060ff603f8360061c1686015116810190508060081b905060ff603f831686015116810190508060e01b90508084526004840193505050611d5b565b506003860660018114611dee5760028114611dfe57611e09565b613d3d60f01b6002830352611e09565b603d60f81b60018303525b508484525050819450505050505b919050565b611e368282604051806020016040528060008152506122ee565b5050565b611e4382611ea7565b611e82576040517f08c379a0000000000000000000000000000000000000000000000000000000008152600401611e7990613a1c565b60405180910390fd5b80600660008481526020019081526020016000209081611ea29190613bd3565b505050565b60008073ffffffffffffffffffffffffffffffffffffffff16611ec98361186d565b73ffffffffffffffffffffffffffffffffffffffff1614159050919050565b600181111561200857600073ffffffffffffffffffffffffffffffffffffffff168473ffffffffffffffffffffffffffffffffffffffff1614611f7c5780600360008673ffffffffffffffffffffffffffffffffffffffff1673ffffffffffffffffffffffffffffffffffffffff1681526020019081526020016000206000828254611f7491906130de565b925050819055505b600073ffffffffffffffffffffffffffffffffffffffff168373ffffffffffffffffffffffffffffffffffffffff16146120075780600360008573ffffffffffffffffffffffffffffffffffffffff1673ffffffffffffffffffffffffffffffffffffffff1681526020019081526020016000206000828254611fff9190613903565b925050819055505b5b50505050565b50505050565b60006120358473ffffffffffffffffffffffffffffffffffffffff16612349565b1561218e578373ffffffffffffffffffffffffffffffffffffffff1663150b7a0261205e6113a0565b8786866040518563ffffffff1660e01b81526004016120809493929190613cfa565b6020604051808303816000875af19250505080156120bc57506040513d601f19601f820116820180604052508101906120b99190613d5b565b60015b61213e573d80600081146120ec576040519150601f19603f3d011682016040523d82523d6000602084013e6120f1565b606091505b506000815103612136576040517f08c379a000000000000000000000000000000000000000000000000000000000815260040161212d906138b4565b60405180910390fd5b805181602001fd5b63150b7a0260e01b7bffffffffffffffffffffffffffffffffffffffffffffffffffffffff1916817bffffffffffffffffffffffffffffffffffffffffffffffffffffffff191614915050612193565b600190505b949350505050565b600080600090507a184f03e93ff9f4daa797ed6e38ed64bf6a1f01000000000000000083106121f9577a184f03e93ff9f4daa797ed6e38ed64bf6a1f01000000000000000083816121ef576121ee6138d4565b5b0492506040810190505b6d04ee2d6d415b85acef81000000008310612236576d04ee2d6d415b85acef8100000000838161222c5761222b6138d4565b5b0492506020810190505b662386f26fc10000831061226557662386f26fc10000838161225b5761225a6138d4565b5b0492506010810190505b6305f5e100831061228e576305f5e1008381612284576122836138d4565b5b0492506008810190505b61271083106122b35761271083816122a9576122a86138d4565b5b0492506004810190505b606483106122d657606483816122cc576122cb6138d4565b5b0492506002810190505b600a83106122e5576001810190505b80915050919050565b6122f8838361236c565b6123056000848484612014565b612344576040517f08c379a000000000000000000000000000000000000000000000000000000000815260040161233b906138b4565b60405180910390fd5b505050565b6000808273ffffffffffffffffffffffffffffffffffffffff163b119050919050565b600073ffffffffffffffffffffffffffffffffffffffff168273ffffffffffffffffffffffffffffffffffffffff16036123db576040517f08c379a00000000000000000000000000000000000000000000000000000000081526004016123d290613dd4565b60405180910390fd5b6123e481611ea7565b15612424576040517f08c379a000000000000000000000000000000000000000000000000000000000815260040161241b90613e40565b60405180910390fd5b612432600083836001611ee8565b61243b81611ea7565b1561247b576040517f08c379a000000000000000000000000000000000000000000000000000000000815260040161247290613e40565b60405180910390fd5b6001600360008473ffffffffffffffffffffffffffffffffffffffff1673ffffffffffffffffffffffffffffffffffffffff16815260200190815260200160002060008282540192505081905550816002600083815260200190815260200160002060006101000a81548173ffffffffffffffffffffffffffffffffffffffff021916908373ffffffffffffffffffffffffffffffffffffffff160217905550808273ffffffffffffffffffffffffffffffffffffffff16600073ffffffffffffffffffffffffffffffffffffffff167fddf252ad1be2c89b69c2b068fc378daa952ba7f163c4a11628f55a4df523b3ef60405160405180910390a461258560008383600161200e565b5050565b6000604051905090565b600080fd5b600080fd5b60007fffffffff0000000000000000000000000000000000000000000000000000000082169050919050565b6125d28161259d565b81146125dd57600080fd5b50565b6000813590506125ef816125c9565b92915050565b60006020828403121561260b5761260a612593565b5b6000612619848285016125e0565b91505092915050565b60008115159050919050565b61263781612622565b82525050565b6000602082019050612652600083018461262e565b92915050565b600073ffffffffffffffffffffffffffffffffffffffff82169050919050565b600061268382612658565b9050919050565b61269381612678565b82525050565b60006020820190506126ae600083018461268a565b92915050565b600081519050919050565b600082825260208201905092915050565b60005b838110156126ee5780820151818401526020810190506126d3565b60008484015250505050565b6000601f19601f8301169050919050565b6000612716826126b4565b61272081856126bf565b93506127308185602086016126d0565b612739816126fa565b840191505092915050565b6000602082019050818103600083015261275e818461270b565b905092915050565b6000819050919050565b61277981612766565b811461278457600080fd5b50565b60008135905061279681612770565b92915050565b6000602082840312156127b2576127b1612593565b5b60006127c084828501612787565b91505092915050565b6127d281612678565b81146127dd57600080fd5b50565b6000813590506127ef816127c9565b92915050565b6000806040838503121561280c5761280b612593565b5b600061281a858286016127e0565b925050602061282b85828601612787565b9150509250929050565b61283e81612766565b82525050565b60006020820190506128596000830184612835565b92915050565b60008060006060848603121561287857612877612593565b5b6000612886868287016127e0565b9350506020612897868287016127e0565b92505060406128a886828701612787565b9150509250925092565b6000602082840312156128c8576128c7612593565b5b60006128d6848285016127e0565b91505092915050565b6128e881612622565b81146128f357600080fd5b50565b600081359050612905816128df565b92915050565b6000806040838503121561292257612921612593565b5b6000612930858286016127e0565b9250506020612941858286016128f6565b9150509250929050565b600080fd5b600080fd5b7f4e487b7100000000000000000000000000000000000000000000000000000000600052604160045260246000fd5b61298d826126fa565b810181811067ffffffffffffffff821117156129ac576129ab612955565b5b80604052505050565b60006129bf612589565b90506129cb8282612984565b919050565b600067ffffffffffffffff8211156129eb576129ea612955565b5b6129f4826126fa565b9050602081019050919050565b82818337600083830152505050565b6000612a23612a1e846129d0565b6129b5565b905082815260208101848484011115612a3f57612a3e612950565b5b612a4a848285612a01565b509392505050565b600082601f830112612a6757612a6661294b565b5b8135612a77848260208601612a10565b91505092915050565b60008060008060808587031215612a9a57612a99612593565b5b6000612aa8878288016127e0565b9450506020612ab9878288016127e0565b9350506040612aca87828801612787565b925050606085013567ffffffffffffffff811115612aeb57612aea612598565b5b612af787828801612a52565b91505092959194509250565b60008060408385031215612b1a57612b19612593565b5b6000612b28858286016127e0565b9250506020612b39858286016127e0565b9150509250929050565b7f4e487b7100000000000000000000000000000000000000000000000000000000600052602260045260246000fd5b60006002820490506001821680612b8a57607f821691505b602082108103612b9d57612b9c612b43565b5b50919050565b7f4552433732313a20617070726f76616c20746f2063757272656e74206f776e6560008201527f7200000000000000000000000000000000000000000000000000000000000000602082015250565b6000612bff6021836126bf565b9150612c0a82612ba3565b604082019050919050565b60006020820190508181036000830152612c2e81612bf2565b9050919050565b7f4552433732313a20617070726f76652063616c6c6572206973206e6f7420746f60008201527f6b656e206f776e6572206f7220617070726f76656420666f7220616c6c000000602082015250565b6000612c91603d836126bf565b9150612c9c82612c35565b604082019050919050565b60006020820190508181036000830152612cc081612c84565b9050919050565b7f4552433732313a2063616c6c6572206973206e6f7420746f6b656e206f776e6560008201527f72206f7220617070726f76656400000000000000000000000000000000000000602082015250565b6000612d23602d836126bf565b9150612d2e82612cc7565b604082019050919050565b60006020820190508181036000830152612d5281612d16565b9050919050565b7f4552433732313a20696e76616c696420746f6b656e2049440000000000000000600082015250565b6000612d8f6018836126bf565b9150612d9a82612d59565b602082019050919050565b60006020820190508181036000830152612dbe81612d82565b9050919050565b7f4552433732313a2061646472657373207a65726f206973206e6f74206120766160008201527f6c6964206f776e65720000000000000000000000000000000000000000000000602082015250565b6000612e216029836126bf565b9150612e2c82612dc5565b604082019050919050565b60006020820190508181036000830152612e5081612e14565b9050919050565b600081905092915050565b6000612e6d826126b4565b612e778185612e57565b9350612e878185602086016126d0565b80840191505092915050565b6000612e9f8285612e62565b9150612eab8284612e62565b91508190509392505050565b7f5075726368617365206973206e6f7420617661696c61626c6500000000000000600082015250565b6000612eed6019836126bf565b9150612ef882612eb7565b602082019050919050565b60006020820190508181036000830152612f1c81612ee0565b9050919050565b7f536f6c64206f75742c20737279206d3800000000000000000000000000000000600082015250565b6000612f596010836126bf565b9150612f6482612f23565b602082019050919050565b60006020820190508181036000830152612f8881612f4c565b9050919050565b7f496e636f727265637420616d6f756e7400000000000000000000000000000000600082015250565b6000612fc56010836126bf565b9150612fd082612f8f565b602082019050919050565b60006020820190508181036000830152612ff481612fb8565b9050919050565b7f596f7520616c726561647920686176652061207469636b65742c206d38000000600082015250565b6000613031601d836126bf565b915061303c82612ffb565b602082019050919050565b6000602082019050818103600083015261306081613024565b9050919050565b7f4e487b7100000000000000000000000000000000000000000000000000000000600052601160045260246000fd5b60006130a182612766565b91507fffffffffffffffffffffffffffffffffffffffffffffffffffffffffffffffff82036130d3576130d2613067565b5b600182019050919050565b60006130e982612766565b91506130f483612766565b925082820390508181111561310c5761310b613067565b5b92915050565b7f7b20226e616d65223a2022000000000000000000000000000000000000000000600082015250565b6000613148600b83612e57565b915061315382613112565b600b82019050919050565b60008190508160005260206000209050919050565b6000815461318081612b72565b61318a8186612e57565b945060018216600081146131a557600181146131ba576131ed565b60ff19831686528115158202860193506131ed565b6131c38561315e565b60005b838110156131e5578154818901526001820191506020810190506131c6565b838801955050505b50505092915050565b7f2023000000000000000000000000000000000000000000000000000000000000600082015250565b600061322c600283612e57565b9150613237826131f6565b600282019050919050565b7f222c20226465736372697074696f6e223a20225469636b6574222c2000000000600082015250565b6000613278601c83612e57565b915061328382613242565b601c82019050919050565b7f22686f6c646572223a2022000000000000000000000000000000000000000000600082015250565b60006132c4600b83612e57565b91506132cf8261328e565b600b82019050919050565b60008160601b9050919050565b60006132f2826132da565b9050919050565b6000613304826132e7565b9050919050565b61331c61331782612678565b6132f9565b82525050565b7f222c000000000000000000000000000000000000000000000000000000000000600082015250565b6000613358600283612e57565b915061336382613322565b600282019050919050565b7f22747261697473223a205b7b202274726169745f74797065223a20224368656360008201527f6b656420496e222c202276616c7565223a202266616c736522207d2c207b202260208201527f74726169745f74797065223a2022507572636861736564222c202276616c756560408201527f223a20227472756522207d5d2c20000000000000000000000000000000000000606082015250565b6000613416606e83612e57565b91506134218261336e565b606e82019050919050565b7f22696d616765223a2022697066733a2f2f516d507755505148464b46765a6a6d60008201527f79743373616d435154507962326d72366d4e6f754d6338347857647946486a2260208201527f207d000000000000000000000000000000000000000000000000000000000000604082015250565b60006134ae604283612e57565b91506134b98261342c565b604282019050919050565b60006134cf8261313b565b91506134db8286613173565b91506134e68261321f565b91506134f28285612e62565b91506134fd8261326b565b9150613508826132b7565b9150613514828461330b565b6014820191506135238261334b565b915061352e82613409565b9150613539826134a1565b9150819050949350505050565b7f646174613a6170706c69636174696f6e2f6a736f6e3b6261736536342c000000600082015250565b600061357c601d83612e57565b915061358782613546565b601d82019050919050565b600061359d8261356f565b91506135a98284612e62565b915081905092915050565b7f4f776e61626c653a206e6577206f776e657220697320746865207a65726f206160008201527f6464726573730000000000000000000000000000000000000000000000000000602082015250565b60006136106026836126bf565b915061361b826135b4565b604082019050919050565b6000602082019050818103600083015261363f81613603565b9050919050565b7f4552433732313a207472616e736665722066726f6d20696e636f72726563742060008201527f6f776e6572000000000000000000000000000000000000000000000000000000602082015250565b60006136a26025836126bf565b91506136ad82613646565b604082019050919050565b600060208201905081810360008301526136d181613695565b9050919050565b7f4552433732313a207472616e7366657220746f20746865207a65726f2061646460008201527f7265737300000000000000000000000000000000000000000000000000000000602082015250565b60006137346024836126bf565b915061373f826136d8565b604082019050919050565b6000602082019050818103600083015261376381613727565b9050919050565b7f4f776e61626c653a2063616c6c6572206973206e6f7420746865206f776e6572600082015250565b60006137a06020836126bf565b91506137ab8261376a565b602082019050919050565b600060208201905081810360008301526137cf81613793565b9050919050565b7f4552433732313a20617070726f766520746f2063616c6c657200000000000000600082015250565b600061380c6019836126bf565b9150613817826137d6565b602082019050919050565b6000602082019050818103600083015261383b816137ff565b9050919050565b7f4552433732313a207472616e7366657220746f206e6f6e20455243373231526560008201527f63656976657220696d706c656d656e7465720000000000000000000000000000602082015250565b600061389e6032836126bf565b91506138a982613842565b604082019050919050565b600060208201905081810360008301526138cd81613891565b9050919050565b7f4e487b7100000000000000000000000000000000000000000000000000000000600052601260045260246000fd5b600061390e82612766565b915061391983612766565b925082820190508082111561393157613930613067565b5b92915050565b600061394282612766565b915061394d83612766565b92508261395d5761395c6138d4565b5b828204905092915050565b600061397382612766565b915061397e83612766565b925082820261398c81612766565b915082820484148315176139a3576139a2613067565b5b5092915050565b7f45524337323155524953746f726167653a2055524920736574206f66206e6f6e60008201527f6578697374656e7420746f6b656e000000000000000000000000000000000000602082015250565b6000613a06602e836126bf565b9150613a11826139aa565b604082019050919050565b60006020820190508181036000830152613a35816139f9565b9050919050565b60006020601f8301049050919050565b600082821b905092915050565b600060088302613a897fffffffffffffffffffffffffffffffffffffffffffffffffffffffffffffffff82613a4c565b613a938683613a4c565b95508019841693508086168417925050509392505050565b6000819050919050565b6000613ad0613acb613ac684612766565b613aab565b612766565b9050919050565b6000819050919050565b613aea83613ab5565b613afe613af682613ad7565b848454613a59565b825550505050565b600090565b613b13613b06565b613b1e818484613ae1565b505050565b5b81811015613b4257613b37600082613b0b565b600181019050613b24565b5050565b601f821115613b8757613b588161315e565b613b6184613a3c565b81016020851015613b70578190505b613b84613b7c85613a3c565b830182613b23565b50505b505050565b600082821c905092915050565b6000613baa60001984600802613b8c565b1980831691505092915050565b6000613bc38383613b99565b9150826002028217905092915050565b613bdc826126b4565b67ffffffffffffffff811115613bf557613bf4612955565b5b613bff8254612b72565b613c0a828285613b46565b600060209050601f831160018114613c3d5760008415613c2b578287015190505b613c358582613bb7565b865550613c9d565b601f198416613c4b8661315e565b60005b82811015613c7357848901518255600182019150602085019450602081019050613c4e565b86831015613c905784890151613c8c601f891682613b99565b8355505b6001600288020188555050505b505050505050565b600081519050919050565b600082825260208201905092915050565b6000613ccc82613ca5565b613cd68185613cb0565b9350613ce68185602086016126d0565b613cef816126fa565b840191505092915050565b6000608082019050613d0f600083018761268a565b613d1c602083018661268a565b613d296040830185612835565b8181036060830152613d3b8184613cc1565b905095945050505050565b600081519050613d55816125c9565b92915050565b600060208284031215613d7157613d70612593565b5b6000613d7f84828501613d46565b91505092915050565b7f4552433732313a206d696e7420746f20746865207a65726f2061646472657373600082015250565b6000613dbe6020836126bf565b9150613dc982613d88565b602082019050919050565b60006020820190508181036000830152613ded81613db1565b9050919050565b7f4552433732313a20746f6b656e20616c7265616479206d696e74656400000000600082015250565b6000613e2a601c836126bf565b9150613e3582613df4565b602082019050919050565b60006020820190508181036000830152613e5981613e1d565b905091905056fe4142434445464748494a4b4c4d4e4f505152535455565758595a6162636465666768696a6b6c6d6e6f707172737475767778797a303132333435363738392b2fa26469706673582212204db21e83b5719fdaf7ff20727f32b25b8027d228def4052f04ad81a5faa2044b64736f6c63430008110033",
  "immutableReferences": {},
  "source": "pragma solidity ^0.8.0;\n\nimport \"@openzeppelin/contracts/token/ERC721/ERC721.sol\";\nimport \"@openzeppelin/contracts/access/Ownable.sol\";\nimport \"@openzeppelin/contracts/token/ERC721/extensions/ERC721URIStorage.sol\";\nimport \"@openzeppelin/contracts/utils/Strings.sol\";\nimport \"./Base64.sol\";\n\ncontract TicketNFT is ERC721URIStorage, Ownable{\n    uint256 public maxAmount;\n    uint256 public totalAmount;\n    uint256 public price;\n    bool public isAvailable;\n    address public creator;\n    string public name_;\n    string public symbol_;\n    mapping(address=>uint256) userTickets;\n\n    constructor(string memory name, string memory symbol, uint256 _maxAmount, uint256 _price, address _owner) ERC721(name, symbol){\n        symbol_=symbol;\n        name_=name;\n        maxAmount=_maxAmount;\n        price = _price;\n        creator = _owner;\n    }\n    function setMaxAmount(uint256 max)external onlyOwner{\n        maxAmount=max;\n    }\n\n    function toggleIsAvailable() external {\n        require(creator==msg.sender);\n        isAvailable=!isAvailable;\n    }\n\n    function buyTicket() external payable{\n        require(isAvailable, 'Purchase is not available');\n        require(totalAmount<maxAmount, 'Sold out, sry m8');\n        require(msg.value==price, 'Incorrect amount');\n        require(userTickets[msg.sender]<1, 'You already have a ticket, m8');\n        userTickets[msg.sender]++;\n        totalAmount++;\n        uint256 ticketId=totalAmount-1;\n        string memory json = Base64.encode(\n            bytes(\n                string(\n                    abi.encodePacked(\n                        '{ \"name\": \"', name_,' #',\n                        Strings.toString(ticketId),\n                        '\", \"description\": \"Ticket\", ',\n                        '\"holder\": \"', msg.sender,'\",',\n                        '\"traits\": [{ \"trait_type\": \"Checked In\", \"value\": \"false\" }, { \"trait_type\": \"Purchased\", \"value\": \"true\" }], ',\n                        '\"image\": \"ipfs://QmPwUPQHFKFvZjmyt3samCQTPyb2mr6mNouMc84xWdyFHj\" }'\n                    )\n                )\n            )\n        );\n\n        string memory tokenURI = string(\n            abi.encodePacked(\"data:application/json;base64,\", json)\n        );\n        _safeMint(msg.sender, ticketId);\n         _setTokenURI(ticketId, tokenURI);\n\n    }\n    function confirmOwnership(address addy) public view returns (bool) {\n        return userTickets[addy] > 0;\n    }\n\n}\n\ncontract ticketCreator{\n    mapping (address=>TicketNFT) public db;\n    function createTicket(string memory _name, string memory _symbol, uint256 _maxAmount, uint256 _price) \n    public\n    returns(TicketNFT tokenAddress){\n        TicketNFT nft = new TicketNFT(_name, _symbol,_maxAmount,_price, msg.sender);\n        db[msg.sender]=nft;\n        return  nft;\n    }\n}",
  "sourcePath": "/Users/public_hysteria/vk_nft/contracts/nft.sol",
  "compiler": {
    "name": "solc",
    "version": "0.8.17+commit.8df45f5f.Emscripten.clang"
  },
  "schemaVersion": "3.4.11",
  "updatedAt": "2023-02-07T23:16:13.233Z",
  "devdoc": {
    "kind": "dev",
    "methods": {
      "approve(address,uint256)": {
        "details": "See {IERC721-approve}."
      },
      "balanceOf(address)": {
        "details": "See {IERC721-balanceOf}."
      },
      "getApproved(uint256)": {
        "details": "See {IERC721-getApproved}."
      },
      "isApprovedForAll(address,address)": {
        "details": "See {IERC721-isApprovedForAll}."
      },
      "name()": {
        "details": "See {IERC721Metadata-name}."
      },
      "owner()": {
        "details": "Returns the address of the current owner."
      },
      "ownerOf(uint256)": {
        "details": "See {IERC721-ownerOf}."
      },
      "renounceOwnership()": {
        "details": "Leaves the contract without owner. It will not be possible to call `onlyOwner` functions anymore. Can only be called by the current owner. NOTE: Renouncing ownership will leave the contract without an owner, thereby removing any functionality that is only available to the owner."
      },
      "safeTransferFrom(address,address,uint256)": {
        "details": "See {IERC721-safeTransferFrom}."
      },
      "safeTransferFrom(address,address,uint256,bytes)": {
        "details": "See {IERC721-safeTransferFrom}."
      },
      "setApprovalForAll(address,bool)": {
        "details": "See {IERC721-setApprovalForAll}."
      },
      "supportsInterface(bytes4)": {
        "details": "See {IERC165-supportsInterface}."
      },
      "symbol()": {
        "details": "See {IERC721Metadata-symbol}."
      },
      "tokenURI(uint256)": {
        "details": "See {IERC721Metadata-tokenURI}."
      },
      "transferFrom(address,address,uint256)": {
        "details": "See {IERC721-transferFrom}."
      },
      "transferOwnership(address)": {
        "details": "Transfers ownership of the contract to a new account (`newOwner`). Can only be called by the current owner."
      }
    },
    "version": 1
  },
  "userdoc": {
    "kind": "user",
    "methods": {},
    "version": 1
  }
}