{
  "contractName": "ticketCreator",
  "abi": [
    {
      "inputs": [
        {
          "internalType": "uint256",
          "name": "",
          "type": "uint256"
        }
      ],
      "name": "allEvents",
      "outputs": [
        {
          "internalType": "contract TicketNFT",
          "name": "",
          "type": "address"
        }
      ],
      "stateMutability": "view",
      "type": "function",
      "constant": true
    },
    {
      "inputs": [],
      "name": "indexOfDb",
      "outputs": [
        {
          "internalType": "uint256",
          "name": "",
          "type": "uint256"
        }
      ],
      "stateMutability": "view",
      "type": "function",
      "constant": true
    },
    {
      "inputs": [],
      "name": "viewIndex",
      "outputs": [
        {
          "internalType": "uint256",
          "name": "",
          "type": "uint256"
        }
      ],
      "stateMutability": "view",
      "type": "function",
      "constant": true
    },
    {
      "inputs": [
        {
          "internalType": "string",
          "name": "_name",
          "type": "string"
        },
        {
          "internalType": "string",
          "name": "_symbol",
          "type": "string"
        },
        {
          "internalType": "uint256",
          "name": "_maxAmount",
          "type": "uint256"
        },
        {
          "internalType": "uint256",
          "name": "_price",
          "type": "uint256"
        }
      ],
      "name": "createTicket",
      "outputs": [
        {
          "internalType": "contract TicketNFT",
          "name": "tokenAddress",
          "type": "address"
        }
      ],
      "stateMutability": "nonpayable",
      "type": "function"
    }
  ],
  "bytecode": "0x6080604052600060015534801561001557600080fd5b506145d8806100256000396000f3fe60806040523480156200001157600080fd5b5060043610620000525760003560e01c80633bec5cff146200005757806393e9541d146200008d5780639bb9202b14620000c3578063c3c295ed14620000e5575b600080fd5b6200007560048036038101906200006f919062000266565b62000107565b60405162000084919062000323565b60405180910390f35b620000ab6004803603810190620000a59190620004a2565b6200013a565b604051620000ba919062000323565b60405180910390f35b620000cd620001f9565b604051620000dc919062000563565b60405180910390f35b620000ef620001ff565b604051620000fe919062000563565b60405180910390f35b60006020528060005260406000206000915054906101000a900473ffffffffffffffffffffffffffffffffffffffff1681565b6000808585858533604051620001509062000209565b620001609594939291906200062e565b604051809103906000f0801580156200017d573d6000803e3d6000fd5b50905080600080600154815260200190815260200160002060006101000a81548173ffffffffffffffffffffffffffffffffffffffff021916908373ffffffffffffffffffffffffffffffffffffffff16021790555060016000815480929190620001e890620006c8565b919050555080915050949350505050565b60015481565b6000600154905090565b613e8d806200071683390190565b6000604051905090565b600080fd5b600080fd5b6000819050919050565b62000240816200022b565b81146200024c57600080fd5b50565b600081359050620002608162000235565b92915050565b6000602082840312156200027f576200027e62000221565b5b60006200028f848285016200024f565b91505092915050565b600073ffffffffffffffffffffffffffffffffffffffff82169050919050565b6000819050919050565b6000620002e3620002dd620002d78462000298565b620002b8565b62000298565b9050919050565b6000620002f782620002c2565b9050919050565b60006200030b82620002ea565b9050919050565b6200031d81620002fe565b82525050565b60006020820190506200033a600083018462000312565b92915050565b600080fd5b600080fd5b6000601f19601f8301169050919050565b7f4e487b7100000000000000000000000000000000000000000000000000000000600052604160045260246000fd5b62000395826200034a565b810181811067ffffffffffffffff82111715620003b757620003b66200035b565b5b80604052505050565b6000620003cc62000217565b9050620003da82826200038a565b919050565b600067ffffffffffffffff821115620003fd57620003fc6200035b565b5b62000408826200034a565b9050602081019050919050565b82818337600083830152505050565b60006200043b6200043584620003df565b620003c0565b9050828152602081018484840111156200045a576200045962000345565b5b6200046784828562000415565b509392505050565b600082601f83011262000487576200048662000340565b5b81356200049984826020860162000424565b91505092915050565b60008060008060808587031215620004bf57620004be62000221565b5b600085013567ffffffffffffffff811115620004e057620004df62000226565b5b620004ee878288016200046f565b945050602085013567ffffffffffffffff81111562000512576200051162000226565b5b62000520878288016200046f565b935050604062000533878288016200024f565b925050606062000546878288016200024f565b91505092959194509250565b6200055d816200022b565b82525050565b60006020820190506200057a600083018462000552565b92915050565b600081519050919050565b600082825260208201905092915050565b60005b83811015620005bc5780820151818401526020810190506200059f565b60008484015250505050565b6000620005d58262000580565b620005e181856200058b565b9350620005f38185602086016200059c565b620005fe816200034a565b840191505092915050565b6000620006168262000298565b9050919050565b620006288162000609565b82525050565b600060a08201905081810360008301526200064a8188620005c8565b90508181036020830152620006608187620005c8565b905062000671604083018662000552565b62000680606083018562000552565b6200068f60808301846200061d565b9695505050505050565b7f4e487b7100000000000000000000000000000000000000000000000000000000600052601160045260246000fd5b6000620006d5826200022b565b91507fffffffffffffffffffffffffffffffffffffffffffffffffffffffffffffffff82036200070a576200070962000699565b5b60018201905091905056fe60806040523480156200001157600080fd5b5060405162003e8d38038062003e8d833981810160405281019062000037919062000419565b848481600090816200004a919062000720565b5080600190816200005c919062000720565b5050506200007f620000736200011860201b60201c565b6200012060201b60201c565b83600d908162000090919062000720565b5084600c9081620000a2919062000720565b508260088190555081600a8190555080600b60016101000a81548173ffffffffffffffffffffffffffffffffffffffff021916908373ffffffffffffffffffffffffffffffffffffffff1602179055506001600b60006101000a81548160ff021916908315150217905550505050505062000807565b600033905090565b6000600760009054906101000a900473ffffffffffffffffffffffffffffffffffffffff16905081600760006101000a81548173ffffffffffffffffffffffffffffffffffffffff021916908373ffffffffffffffffffffffffffffffffffffffff1602179055508173ffffffffffffffffffffffffffffffffffffffff168173ffffffffffffffffffffffffffffffffffffffff167f8be0079c531659141344cd1fd0a4f28419497f9722a3daafe3b4186f6b6457e060405160405180910390a35050565b6000604051905090565b600080fd5b600080fd5b600080fd5b600080fd5b6000601f19601f8301169050919050565b7f4e487b7100000000000000000000000000000000000000000000000000000000600052604160045260246000fd5b6200024f8262000204565b810181811067ffffffffffffffff8211171562000271576200027062000215565b5b80604052505050565b600062000286620001e6565b905062000294828262000244565b919050565b600067ffffffffffffffff821115620002b757620002b662000215565b5b620002c28262000204565b9050602081019050919050565b60005b83811015620002ef578082015181840152602081019050620002d2565b60008484015250505050565b6000620003126200030c8462000299565b6200027a565b905082815260208101848484011115620003315762000330620001ff565b5b6200033e848285620002cf565b509392505050565b600082601f8301126200035e576200035d620001fa565b5b815162000370848260208601620002fb565b91505092915050565b6000819050919050565b6200038e8162000379565b81146200039a57600080fd5b50565b600081519050620003ae8162000383565b92915050565b600073ffffffffffffffffffffffffffffffffffffffff82169050919050565b6000620003e182620003b4565b9050919050565b620003f381620003d4565b8114620003ff57600080fd5b50565b6000815190506200041381620003e8565b92915050565b600080600080600060a08688031215620004385762000437620001f0565b5b600086015167ffffffffffffffff811115620004595762000458620001f5565b5b620004678882890162000346565b955050602086015167ffffffffffffffff8111156200048b576200048a620001f5565b5b620004998882890162000346565b9450506040620004ac888289016200039d565b9350506060620004bf888289016200039d565b9250506080620004d28882890162000402565b9150509295509295909350565b600081519050919050565b7f4e487b7100000000000000000000000000000000000000000000000000000000600052602260045260246000fd5b600060028204905060018216806200053257607f821691505b602082108103620005485762000547620004ea565b5b50919050565b60008190508160005260206000209050919050565b60006020601f8301049050919050565b600082821b905092915050565b600060088302620005b27fffffffffffffffffffffffffffffffffffffffffffffffffffffffffffffffff8262000573565b620005be868362000573565b95508019841693508086168417925050509392505050565b6000819050919050565b600062000601620005fb620005f58462000379565b620005d6565b62000379565b9050919050565b6000819050919050565b6200061d83620005e0565b620006356200062c8262000608565b84845462000580565b825550505050565b600090565b6200064c6200063d565b6200065981848462000612565b505050565b5b8181101562000681576200067560008262000642565b6001810190506200065f565b5050565b601f821115620006d0576200069a816200054e565b620006a58462000563565b81016020851015620006b5578190505b620006cd620006c48562000563565b8301826200065e565b50505b505050565b600082821c905092915050565b6000620006f560001984600802620006d5565b1980831691505092915050565b6000620007108383620006e2565b9150826002028217905092915050565b6200072b82620004df565b67ffffffffffffffff81111562000747576200074662000215565b5b62000753825462000519565b6200076082828562000685565b600060209050601f83116001811462000798576000841562000783578287015190505b6200078f858262000702565b865550620007ff565b601f198416620007a8866200054e565b60005b82811015620007d257848901518255600182019150602085019450602081019050620007ab565b86831015620007f25784890151620007ee601f891682620006e2565b8355505b6001600288020188555050505b505050505050565b61367680620008176000396000f3fe6080604052600436106101c25760003560e01c80637bdc60d9116100f7578063af17dea611610095578063e985e9c511610064578063e985e9c514610644578063ea55763314610681578063edca914c146106be578063f2fde38b146106dc576101c2565b8063af17dea614610588578063b88d4fde146105b3578063c87b56dd146105dc578063e2b9e18614610619576101c2565b80638da5cb5b116100d15780638da5cb5b146104de57806395d89b4114610509578063a035b1fe14610534578063a22cb4651461055f576101c2565b80637bdc60d91461043957806380f2abe314610476578063856c71dd146104b3576101c2565b806323b872dd116101645780635f48f3931161013e5780635f48f3931461037d5780636352211e146103a857806370a08231146103e5578063715018a614610422576101c2565b806323b872dd1461030257806342842e0e1461032b5780634fe47f7014610354576101c2565b806306fdde03116101a057806306fdde0314610246578063081812fc14610271578063095ea7b3146102ae5780631a39d8ef146102d7576101c2565b806301ffc9a7146101c757806302214df21461020457806302d05d3f1461021b575b600080fd5b3480156101d357600080fd5b506101ee60048036038101906101e99190612579565b610705565b6040516101fb91906125c1565b60405180910390f35b34801561021057600080fd5b506102196107e7565b005b34801561022757600080fd5b5061023061086d565b60405161023d919061261d565b60405180910390f35b34801561025257600080fd5b5061025b610893565b60405161026891906126c8565b60405180910390f35b34801561027d57600080fd5b5061029860048036038101906102939190612720565b610925565b6040516102a5919061261d565b60405180910390f35b3480156102ba57600080fd5b506102d560048036038101906102d09190612779565b61096b565b005b3480156102e357600080fd5b506102ec610a82565b6040516102f991906127c8565b60405180910390f35b34801561030e57600080fd5b50610329600480360381019061032491906127e3565b610a88565b005b34801561033757600080fd5b50610352600480360381019061034d91906127e3565b610ae8565b005b34801561036057600080fd5b5061037b60048036038101906103769190612720565b610b08565b005b34801561038957600080fd5b50610392610b1a565b60405161039f91906127c8565b60405180910390f35b3480156103b457600080fd5b506103cf60048036038101906103ca9190612720565b610b20565b6040516103dc919061261d565b60405180910390f35b3480156103f157600080fd5b5061040c60048036038101906104079190612836565b610ba6565b60405161041991906127c8565b60405180910390f35b34801561042e57600080fd5b50610437610c5d565b005b34801561044557600080fd5b50610460600480360381019061045b9190612720565b610c71565b60405161046d919061261d565b60405180910390f35b34801561048257600080fd5b5061049d60048036038101906104989190612836565b610cf3565b6040516104aa91906125c1565b60405180910390f35b3480156104bf57600080fd5b506104c8610d3e565b6040516104d591906125c1565b60405180910390f35b3480156104ea57600080fd5b506104f3610d51565b604051610500919061261d565b60405180910390f35b34801561051557600080fd5b5061051e610d7b565b60405161052b91906126c8565b60405180910390f35b34801561054057600080fd5b50610549610e0d565b60405161055691906127c8565b60405180910390f35b34801561056b57600080fd5b506105866004803603810190610581919061288f565b610e13565b005b34801561059457600080fd5b5061059d610e29565b6040516105aa91906126c8565b60405180910390f35b3480156105bf57600080fd5b506105da60048036038101906105d59190612a04565b610eb7565b005b3480156105e857600080fd5b5061060360048036038101906105fe9190612720565b610f19565b60405161061091906126c8565b60405180910390f35b34801561062557600080fd5b5061062e61102b565b60405161063b91906126c8565b60405180910390f35b34801561065057600080fd5b5061066b60048036038101906106669190612a87565b6110b9565b60405161067891906125c1565b60405180910390f35b34801561068d57600080fd5b506106a860048036038101906106a39190612836565b61114d565b6040516106b591906127c8565b60405180910390f35b6106c6611196565b6040516106d391906127c8565b60405180910390f35b3480156106e857600080fd5b5061070360048036038101906106fe9190612836565b6113f0565b005b60007f80ac58cd000000000000000000000000000000000000000000000000000000007bffffffffffffffffffffffffffffffffffffffffffffffffffffffff1916827bffffffffffffffffffffffffffffffffffffffffffffffffffffffff191614806107d057507f5b5e139f000000000000000000000000000000000000000000000000000000007bffffffffffffffffffffffffffffffffffffffffffffffffffffffff1916827bffffffffffffffffffffffffffffffffffffffffffffffffffffffff1916145b806107e057506107df82611473565b5b9050919050565b3373ffffffffffffffffffffffffffffffffffffffff16600b60019054906101000a900473ffffffffffffffffffffffffffffffffffffffff1673ffffffffffffffffffffffffffffffffffffffff161461084157600080fd5b600b60009054906101000a900460ff1615600b60006101000a81548160ff021916908315150217905550565b600b60019054906101000a900473ffffffffffffffffffffffffffffffffffffffff1681565b6060600080546108a290612af6565b80601f01602080910402602001604051908101604052809291908181526020018280546108ce90612af6565b801561091b5780601f106108f05761010080835404028352916020019161091b565b820191906000526020600020905b8154815290600101906020018083116108fe57829003601f168201915b5050505050905090565b6000610930826114dd565b6004600083815260200190815260200160002060009054906101000a900473ffffffffffffffffffffffffffffffffffffffff169050919050565b600061097682610b20565b90508073ffffffffffffffffffffffffffffffffffffffff168373ffffffffffffffffffffffffffffffffffffffff16036109e6576040517f08c379a00000000000000000000000000000000000000000000000000000000081526004016109dd90612b99565b60405180910390fd5b8073ffffffffffffffffffffffffffffffffffffffff16610a05611528565b73ffffffffffffffffffffffffffffffffffffffff161480610a345750610a3381610a2e611528565b6110b9565b5b610a73576040517f08c379a0000000000000000000000000000000000000000000000000000000008152600401610a6a90612c2b565b60405180910390fd5b610a7d8383611530565b505050565b60095481565b610a99610a93611528565b826115e9565b610ad8576040517f08c379a0000000000000000000000000000000000000000000000000000000008152600401610acf90612cbd565b60405180910390fd5b610ae383838361167e565b505050565b610b0383838360405180602001604052806000815250610eb7565b505050565b610b10611977565b8060088190555050565b60085481565b600080610b2c836119f5565b9050600073ffffffffffffffffffffffffffffffffffffffff168173ffffffffffffffffffffffffffffffffffffffff1603610b9d576040517f08c379a0000000000000000000000000000000000000000000000000000000008152600401610b9490612d29565b60405180910390fd5b80915050919050565b60008073ffffffffffffffffffffffffffffffffffffffff168273ffffffffffffffffffffffffffffffffffffffff1603610c16576040517f08c379a0000000000000000000000000000000000000000000000000000000008152600401610c0d90612dbb565b60405180910390fd5b600360008373ffffffffffffffffffffffffffffffffffffffff1673ffffffffffffffffffffffffffffffffffffffff168152602001908152602001600020549050919050565b610c65611977565b610c6f6000611a32565b565b6000600954821115610cb8576040517f08c379a0000000000000000000000000000000000000000000000000000000008152600401610caf90612e27565b60405180910390fd5b600f600083815260200190815260200160002060009054906101000a900473ffffffffffffffffffffffffffffffffffffffff169050919050565b600080600e60008473ffffffffffffffffffffffffffffffffffffffff1673ffffffffffffffffffffffffffffffffffffffff16815260200190815260200160002054119050919050565b600b60009054906101000a900460ff1681565b6000600760009054906101000a900473ffffffffffffffffffffffffffffffffffffffff16905090565b606060018054610d8a90612af6565b80601f0160208091040260200160405190810160405280929190818152602001828054610db690612af6565b8015610e035780601f10610dd857610100808354040283529160200191610e03565b820191906000526020600020905b815481529060010190602001808311610de657829003601f168201915b5050505050905090565b600a5481565b610e25610e1e611528565b8383611af8565b5050565b600d8054610e3690612af6565b80601f0160208091040260200160405190810160405280929190818152602001828054610e6290612af6565b8015610eaf5780601f10610e8457610100808354040283529160200191610eaf565b820191906000526020600020905b815481529060010190602001808311610e9257829003601f168201915b505050505081565b610ec8610ec2611528565b836115e9565b610f07576040517f08c379a0000000000000000000000000000000000000000000000000000000008152600401610efe90612cbd565b60405180910390fd5b610f1384848484611c64565b50505050565b6060610f24826114dd565b6000600660008481526020019081526020016000208054610f4490612af6565b80601f0160208091040260200160405190810160405280929190818152602001828054610f7090612af6565b8015610fbd5780601f10610f9257610100808354040283529160200191610fbd565b820191906000526020600020905b815481529060010190602001808311610fa057829003601f168201915b505050505090506000610fce611cc0565b90506000815103610fe3578192505050611026565b600082511115611018578082604051602001611000929190612e83565b60405160208183030381529060405292505050611026565b61102184611cd7565b925050505b919050565b600c805461103890612af6565b80601f016020809104026020016040519081016040528092919081815260200182805461106490612af6565b80156110b15780601f10611086576101008083540402835291602001916110b1565b820191906000526020600020905b81548152906001019060200180831161109457829003601f168201915b505050505081565b6000600560008473ffffffffffffffffffffffffffffffffffffffff1673ffffffffffffffffffffffffffffffffffffffff16815260200190815260200160002060008373ffffffffffffffffffffffffffffffffffffffff1673ffffffffffffffffffffffffffffffffffffffff16815260200190815260200160002060009054906101000a900460ff16905092915050565b6000600e60008373ffffffffffffffffffffffffffffffffffffffff1673ffffffffffffffffffffffffffffffffffffffff168152602001908152602001600020549050919050565b6000600b60009054906101000a900460ff166111e7576040517f08c379a00000000000000000000000000000000000000000000000000000000081526004016111de90612ef3565b60405180910390fd5b6008546009541061122d576040517f08c379a000000000000000000000000000000000000000000000000000000000815260040161122490612f5f565b60405180910390fd5b600a54341015611272576040517f08c379a000000000000000000000000000000000000000000000000000000000815260040161126990612fcb565b60405180910390fd5b6001600e60003373ffffffffffffffffffffffffffffffffffffffff1673ffffffffffffffffffffffffffffffffffffffff16815260200190815260200160002054106112f4576040517f08c379a00000000000000000000000000000000000000000000000000000000081526004016112eb90613037565b60405180910390fd5b6009600081548092919061130790613086565b91905055506000600954905061131d3382611d3f565b80600e60003373ffffffffffffffffffffffffffffffffffffffff1673ffffffffffffffffffffffffffffffffffffffff1681526020019081526020016000208190555033600f600083815260200190815260200160002060006101000a81548173ffffffffffffffffffffffffffffffffffffffff021916908373ffffffffffffffffffffffffffffffffffffffff160217905550600854600954036113e957600b60009054906101000a900460ff1615600b60006101000a81548160ff0219169083151502179055505b8091505090565b6113f8611977565b600073ffffffffffffffffffffffffffffffffffffffff168173ffffffffffffffffffffffffffffffffffffffff1603611467576040517f08c379a000000000000000000000000000000000000000000000000000000000815260040161145e90613140565b60405180910390fd5b61147081611a32565b50565b60007f01ffc9a7000000000000000000000000000000000000000000000000000000007bffffffffffffffffffffffffffffffffffffffffffffffffffffffff1916827bffffffffffffffffffffffffffffffffffffffffffffffffffffffff1916149050919050565b6114e681611d5d565b611525576040517f08c379a000000000000000000000000000000000000000000000000000000000815260040161151c90612d29565b60405180910390fd5b50565b600033905090565b816004600083815260200190815260200160002060006101000a81548173ffffffffffffffffffffffffffffffffffffffff021916908373ffffffffffffffffffffffffffffffffffffffff160217905550808273ffffffffffffffffffffffffffffffffffffffff166115a383610b20565b73ffffffffffffffffffffffffffffffffffffffff167f8c5be1e5ebec7d5bd14f71427d1e84f3dd0314c0f7b2291e5b200ac8c7c3b92560405160405180910390a45050565b6000806115f583610b20565b90508073ffffffffffffffffffffffffffffffffffffffff168473ffffffffffffffffffffffffffffffffffffffff161480611637575061163681856110b9565b5b8061167557508373ffffffffffffffffffffffffffffffffffffffff1661165d84610925565b73ffffffffffffffffffffffffffffffffffffffff16145b91505092915050565b8273ffffffffffffffffffffffffffffffffffffffff1661169e82610b20565b73ffffffffffffffffffffffffffffffffffffffff16146116f4576040517f08c379a00000000000000000000000000000000000000000000000000000000081526004016116eb906131d2565b60405180910390fd5b600073ffffffffffffffffffffffffffffffffffffffff168273ffffffffffffffffffffffffffffffffffffffff1603611763576040517f08c379a000000000000000000000000000000000000000000000000000000000815260040161175a90613264565b60405180910390fd5b6117708383836001611d9e565b8273ffffffffffffffffffffffffffffffffffffffff1661179082610b20565b73ffffffffffffffffffffffffffffffffffffffff16146117e6576040517f08c379a00000000000000000000000000000000000000000000000000000000081526004016117dd906131d2565b60405180910390fd5b6004600082815260200190815260200160002060006101000a81549073ffffffffffffffffffffffffffffffffffffffff02191690556001600360008573ffffffffffffffffffffffffffffffffffffffff1673ffffffffffffffffffffffffffffffffffffffff168152602001908152602001600020600082825403925050819055506001600360008473ffffffffffffffffffffffffffffffffffffffff1673ffffffffffffffffffffffffffffffffffffffff16815260200190815260200160002060008282540192505081905550816002600083815260200190815260200160002060006101000a81548173ffffffffffffffffffffffffffffffffffffffff021916908373ffffffffffffffffffffffffffffffffffffffff160217905550808273ffffffffffffffffffffffffffffffffffffffff168473ffffffffffffffffffffffffffffffffffffffff167fddf252ad1be2c89b69c2b068fc378daa952ba7f163c4a11628f55a4df523b3ef60405160405180910390a46119728383836001611ec4565b505050565b61197f611528565b73ffffffffffffffffffffffffffffffffffffffff1661199d610d51565b73ffffffffffffffffffffffffffffffffffffffff16146119f3576040517f08c379a00000000000000000000000000000000000000000000000000000000081526004016119ea906132d0565b60405180910390fd5b565b60006002600083815260200190815260200160002060009054906101000a900473ffffffffffffffffffffffffffffffffffffffff169050919050565b6000600760009054906101000a900473ffffffffffffffffffffffffffffffffffffffff16905081600760006101000a81548173ffffffffffffffffffffffffffffffffffffffff021916908373ffffffffffffffffffffffffffffffffffffffff1602179055508173ffffffffffffffffffffffffffffffffffffffff168173ffffffffffffffffffffffffffffffffffffffff167f8be0079c531659141344cd1fd0a4f28419497f9722a3daafe3b4186f6b6457e060405160405180910390a35050565b8173ffffffffffffffffffffffffffffffffffffffff168373ffffffffffffffffffffffffffffffffffffffff1603611b66576040517f08c379a0000000000000000000000000000000000000000000000000000000008152600401611b5d9061333c565b60405180910390fd5b80600560008573ffffffffffffffffffffffffffffffffffffffff1673ffffffffffffffffffffffffffffffffffffffff16815260200190815260200160002060008473ffffffffffffffffffffffffffffffffffffffff1673ffffffffffffffffffffffffffffffffffffffff16815260200190815260200160002060006101000a81548160ff0219169083151502179055508173ffffffffffffffffffffffffffffffffffffffff168373ffffffffffffffffffffffffffffffffffffffff167f17307eab39ab6107e8899845ad3d59bd9653f200f220920489ca2b5937696c3183604051611c5791906125c1565b60405180910390a3505050565b611c6f84848461167e565b611c7b84848484611eca565b611cba576040517f08c379a0000000000000000000000000000000000000000000000000000000008152600401611cb1906133ce565b60405180910390fd5b50505050565b606060405180602001604052806000815250905090565b6060611ce2826114dd565b6000611cec611cc0565b90506000815111611d0c5760405180602001604052806000815250611d37565b80611d1684612051565b604051602001611d27929190612e83565b6040516020818303038152906040525b915050919050565b611d5982826040518060200160405280600081525061211f565b5050565b60008073ffffffffffffffffffffffffffffffffffffffff16611d7f836119f5565b73ffffffffffffffffffffffffffffffffffffffff1614159050919050565b6001811115611ebe57600073ffffffffffffffffffffffffffffffffffffffff168473ffffffffffffffffffffffffffffffffffffffff1614611e325780600360008673ffffffffffffffffffffffffffffffffffffffff1673ffffffffffffffffffffffffffffffffffffffff1681526020019081526020016000206000828254611e2a91906133ee565b925050819055505b600073ffffffffffffffffffffffffffffffffffffffff168373ffffffffffffffffffffffffffffffffffffffff1614611ebd5780600360008573ffffffffffffffffffffffffffffffffffffffff1673ffffffffffffffffffffffffffffffffffffffff1681526020019081526020016000206000828254611eb59190613422565b925050819055505b5b50505050565b50505050565b6000611eeb8473ffffffffffffffffffffffffffffffffffffffff1661217a565b15612044578373ffffffffffffffffffffffffffffffffffffffff1663150b7a02611f14611528565b8786866040518563ffffffff1660e01b8152600401611f3694939291906134ab565b6020604051808303816000875af1925050508015611f7257506040513d601f19601f82011682018060405250810190611f6f919061350c565b60015b611ff4573d8060008114611fa2576040519150601f19603f3d011682016040523d82523d6000602084013e611fa7565b606091505b506000815103611fec576040517f08c379a0000000000000000000000000000000000000000000000000000000008152600401611fe3906133ce565b60405180910390fd5b805181602001fd5b63150b7a0260e01b7bffffffffffffffffffffffffffffffffffffffffffffffffffffffff1916817bffffffffffffffffffffffffffffffffffffffffffffffffffffffff191614915050612049565b600190505b949350505050565b6060600060016120608461219d565b01905060008167ffffffffffffffff81111561207f5761207e6128d9565b5b6040519080825280601f01601f1916602001820160405280156120b15781602001600182028036833780820191505090505b509050600082602001820190505b600115612114578080600190039150507f3031323334353637383961626364656600000000000000000000000000000000600a86061a8153600a858161210857612107613539565b5b049450600085036120bf575b819350505050919050565b61212983836122f0565b6121366000848484611eca565b612175576040517f08c379a000000000000000000000000000000000000000000000000000000000815260040161216c906133ce565b60405180910390fd5b505050565b6000808273ffffffffffffffffffffffffffffffffffffffff163b119050919050565b600080600090507a184f03e93ff9f4daa797ed6e38ed64bf6a1f01000000000000000083106121fb577a184f03e93ff9f4daa797ed6e38ed64bf6a1f01000000000000000083816121f1576121f0613539565b5b0492506040810190505b6d04ee2d6d415b85acef81000000008310612238576d04ee2d6d415b85acef8100000000838161222e5761222d613539565b5b0492506020810190505b662386f26fc10000831061226757662386f26fc10000838161225d5761225c613539565b5b0492506010810190505b6305f5e1008310612290576305f5e100838161228657612285613539565b5b0492506008810190505b61271083106122b55761271083816122ab576122aa613539565b5b0492506004810190505b606483106122d857606483816122ce576122cd613539565b5b0492506002810190505b600a83106122e7576001810190505b80915050919050565b600073ffffffffffffffffffffffffffffffffffffffff168273ffffffffffffffffffffffffffffffffffffffff160361235f576040517f08c379a0000000000000000000000000000000000000000000000000000000008152600401612356906135b4565b60405180910390fd5b61236881611d5d565b156123a8576040517f08c379a000000000000000000000000000000000000000000000000000000000815260040161239f90613620565b60405180910390fd5b6123b6600083836001611d9e565b6123bf81611d5d565b156123ff576040517f08c379a00000000000000000000000000000000000000000000000000000000081526004016123f690613620565b60405180910390fd5b6001600360008473ffffffffffffffffffffffffffffffffffffffff1673ffffffffffffffffffffffffffffffffffffffff16815260200190815260200160002060008282540192505081905550816002600083815260200190815260200160002060006101000a81548173ffffffffffffffffffffffffffffffffffffffff021916908373ffffffffffffffffffffffffffffffffffffffff160217905550808273ffffffffffffffffffffffffffffffffffffffff16600073ffffffffffffffffffffffffffffffffffffffff167fddf252ad1be2c89b69c2b068fc378daa952ba7f163c4a11628f55a4df523b3ef60405160405180910390a4612509600083836001611ec4565b5050565b6000604051905090565b600080fd5b600080fd5b60007fffffffff0000000000000000000000000000000000000000000000000000000082169050919050565b61255681612521565b811461256157600080fd5b50565b6000813590506125738161254d565b92915050565b60006020828403121561258f5761258e612517565b5b600061259d84828501612564565b91505092915050565b60008115159050919050565b6125bb816125a6565b82525050565b60006020820190506125d660008301846125b2565b92915050565b600073ffffffffffffffffffffffffffffffffffffffff82169050919050565b6000612607826125dc565b9050919050565b612617816125fc565b82525050565b6000602082019050612632600083018461260e565b92915050565b600081519050919050565b600082825260208201905092915050565b60005b83811015612672578082015181840152602081019050612657565b60008484015250505050565b6000601f19601f8301169050919050565b600061269a82612638565b6126a48185612643565b93506126b4818560208601612654565b6126bd8161267e565b840191505092915050565b600060208201905081810360008301526126e2818461268f565b905092915050565b6000819050919050565b6126fd816126ea565b811461270857600080fd5b50565b60008135905061271a816126f4565b92915050565b60006020828403121561273657612735612517565b5b60006127448482850161270b565b91505092915050565b612756816125fc565b811461276157600080fd5b50565b6000813590506127738161274d565b92915050565b600080604083850312156127905761278f612517565b5b600061279e85828601612764565b92505060206127af8582860161270b565b9150509250929050565b6127c2816126ea565b82525050565b60006020820190506127dd60008301846127b9565b92915050565b6000806000606084860312156127fc576127fb612517565b5b600061280a86828701612764565b935050602061281b86828701612764565b925050604061282c8682870161270b565b9150509250925092565b60006020828403121561284c5761284b612517565b5b600061285a84828501612764565b91505092915050565b61286c816125a6565b811461287757600080fd5b50565b60008135905061288981612863565b92915050565b600080604083850312156128a6576128a5612517565b5b60006128b485828601612764565b92505060206128c58582860161287a565b9150509250929050565b600080fd5b600080fd5b7f4e487b7100000000000000000000000000000000000000000000000000000000600052604160045260246000fd5b6129118261267e565b810181811067ffffffffffffffff821117156129305761292f6128d9565b5b80604052505050565b600061294361250d565b905061294f8282612908565b919050565b600067ffffffffffffffff82111561296f5761296e6128d9565b5b6129788261267e565b9050602081019050919050565b82818337600083830152505050565b60006129a76129a284612954565b612939565b9050828152602081018484840111156129c3576129c26128d4565b5b6129ce848285612985565b509392505050565b600082601f8301126129eb576129ea6128cf565b5b81356129fb848260208601612994565b91505092915050565b60008060008060808587031215612a1e57612a1d612517565b5b6000612a2c87828801612764565b9450506020612a3d87828801612764565b9350506040612a4e8782880161270b565b925050606085013567ffffffffffffffff811115612a6f57612a6e61251c565b5b612a7b878288016129d6565b91505092959194509250565b60008060408385031215612a9e57612a9d612517565b5b6000612aac85828601612764565b9250506020612abd85828601612764565b9150509250929050565b7f4e487b7100000000000000000000000000000000000000000000000000000000600052602260045260246000fd5b60006002820490506001821680612b0e57607f821691505b602082108103612b2157612b20612ac7565b5b50919050565b7f4552433732313a20617070726f76616c20746f2063757272656e74206f776e6560008201527f7200000000000000000000000000000000000000000000000000000000000000602082015250565b6000612b83602183612643565b9150612b8e82612b27565b604082019050919050565b60006020820190508181036000830152612bb281612b76565b9050919050565b7f4552433732313a20617070726f76652063616c6c6572206973206e6f7420746f60008201527f6b656e206f776e6572206f7220617070726f76656420666f7220616c6c000000602082015250565b6000612c15603d83612643565b9150612c2082612bb9565b604082019050919050565b60006020820190508181036000830152612c4481612c08565b9050919050565b7f4552433732313a2063616c6c6572206973206e6f7420746f6b656e206f776e6560008201527f72206f7220617070726f76656400000000000000000000000000000000000000602082015250565b6000612ca7602d83612643565b9150612cb282612c4b565b604082019050919050565b60006020820190508181036000830152612cd681612c9a565b9050919050565b7f4552433732313a20696e76616c696420746f6b656e2049440000000000000000600082015250565b6000612d13601883612643565b9150612d1e82612cdd565b602082019050919050565b60006020820190508181036000830152612d4281612d06565b9050919050565b7f4552433732313a2061646472657373207a65726f206973206e6f74206120766160008201527f6c6964206f776e65720000000000000000000000000000000000000000000000602082015250565b6000612da5602983612643565b9150612db082612d49565b604082019050919050565b60006020820190508181036000830152612dd481612d98565b9050919050565b7f496e636f727265637420616d6d6f756e74000000000000000000000000000000600082015250565b6000612e11601183612643565b9150612e1c82612ddb565b602082019050919050565b60006020820190508181036000830152612e4081612e04565b9050919050565b600081905092915050565b6000612e5d82612638565b612e678185612e47565b9350612e77818560208601612654565b80840191505092915050565b6000612e8f8285612e52565b9150612e9b8284612e52565b91508190509392505050565b7f5075726368617365206973206e6f7420617661696c61626c6500000000000000600082015250565b6000612edd601983612643565b9150612ee882612ea7565b602082019050919050565b60006020820190508181036000830152612f0c81612ed0565b9050919050565b7f536f6c64206f75742c20737279206d3800000000000000000000000000000000600082015250565b6000612f49601083612643565b9150612f5482612f13565b602082019050919050565b60006020820190508181036000830152612f7881612f3c565b9050919050565b7f496e636f727265637420616d6f756e7400000000000000000000000000000000600082015250565b6000612fb5601083612643565b9150612fc082612f7f565b602082019050919050565b60006020820190508181036000830152612fe481612fa8565b9050919050565b7f596f7520616c726561647920686176652061207469636b65742c206d38000000600082015250565b6000613021601d83612643565b915061302c82612feb565b602082019050919050565b6000602082019050818103600083015261305081613014565b9050919050565b7f4e487b7100000000000000000000000000000000000000000000000000000000600052601160045260246000fd5b6000613091826126ea565b91507fffffffffffffffffffffffffffffffffffffffffffffffffffffffffffffffff82036130c3576130c2613057565b5b600182019050919050565b7f4f776e61626c653a206e6577206f776e657220697320746865207a65726f206160008201527f6464726573730000000000000000000000000000000000000000000000000000602082015250565b600061312a602683612643565b9150613135826130ce565b604082019050919050565b600060208201905081810360008301526131598161311d565b9050919050565b7f4552433732313a207472616e736665722066726f6d20696e636f72726563742060008201527f6f776e6572000000000000000000000000000000000000000000000000000000602082015250565b60006131bc602583612643565b91506131c782613160565b604082019050919050565b600060208201905081810360008301526131eb816131af565b9050919050565b7f4552433732313a207472616e7366657220746f20746865207a65726f2061646460008201527f7265737300000000000000000000000000000000000000000000000000000000602082015250565b600061324e602483612643565b9150613259826131f2565b604082019050919050565b6000602082019050818103600083015261327d81613241565b9050919050565b7f4f776e61626c653a2063616c6c6572206973206e6f7420746865206f776e6572600082015250565b60006132ba602083612643565b91506132c582613284565b602082019050919050565b600060208201905081810360008301526132e9816132ad565b9050919050565b7f4552433732313a20617070726f766520746f2063616c6c657200000000000000600082015250565b6000613326601983612643565b9150613331826132f0565b602082019050919050565b6000602082019050818103600083015261335581613319565b9050919050565b7f4552433732313a207472616e7366657220746f206e6f6e20455243373231526560008201527f63656976657220696d706c656d656e7465720000000000000000000000000000602082015250565b60006133b8603283612643565b91506133c38261335c565b604082019050919050565b600060208201905081810360008301526133e7816133ab565b9050919050565b60006133f9826126ea565b9150613404836126ea565b925082820390508181111561341c5761341b613057565b5b92915050565b600061342d826126ea565b9150613438836126ea565b92508282019050808211156134505761344f613057565b5b92915050565b600081519050919050565b600082825260208201905092915050565b600061347d82613456565b6134878185613461565b9350613497818560208601612654565b6134a08161267e565b840191505092915050565b60006080820190506134c0600083018761260e565b6134cd602083018661260e565b6134da60408301856127b9565b81810360608301526134ec8184613472565b905095945050505050565b6000815190506135068161254d565b92915050565b60006020828403121561352257613521612517565b5b6000613530848285016134f7565b91505092915050565b7f4e487b7100000000000000000000000000000000000000000000000000000000600052601260045260246000fd5b7f4552433732313a206d696e7420746f20746865207a65726f2061646472657373600082015250565b600061359e602083612643565b91506135a982613568565b602082019050919050565b600060208201905081810360008301526135cd81613591565b9050919050565b7f4552433732313a20746f6b656e20616c7265616479206d696e74656400000000600082015250565b600061360a601c83612643565b9150613615826135d4565b602082019050919050565b60006020820190508181036000830152613639816135fd565b905091905056fea2646970667358221220347a5d6a931e5eee3789001c15287fcdcca214f35597c66ee3445bff1f1b516c64736f6c63430008110033a2646970667358221220bd2af3a459fa157d12b0ca81f0e7779aea960aa77cf31fd3ac31f8acc1c8230964736f6c63430008110033",
  "immutableReferences": {},
  "source": "pragma solidity ^0.8.0;\n\nimport \"@openzeppelin/contracts/token/ERC721/ERC721.sol\";\nimport \"@openzeppelin/contracts/access/Ownable.sol\";\nimport \"@openzeppelin/contracts/token/ERC721/extensions/ERC721URIStorage.sol\";\nimport \"@openzeppelin/contracts/utils/Strings.sol\";\nimport \"./Base64.sol\";\n\ncontract TicketNFT is ERC721URIStorage, Ownable{\n    uint256 public maxAmount;\n    uint256 public totalAmount;\n    uint256 public price;\n    bool public isAvailable;\n    address public creator;\n    string public name_;\n    string public symbol_;\n    mapping(address=>uint256) userTickets;\n    mapping(uint256=>address) ticketOwner;\n\n    constructor(string memory name, string memory symbol, uint256 _maxAmount, uint256 _price, address _owner) ERC721(name, symbol){\n        symbol_=symbol;\n        name_=name;\n        maxAmount=_maxAmount;\n        price = _price;\n        creator = _owner;\n        isAvailable=true;\n    }\n    function setMaxAmount(uint256 max)external onlyOwner{\n        maxAmount=max;\n    }\n\n    function toggleIsAvailable() external {\n        require(creator==msg.sender);\n        isAvailable=!isAvailable;\n    }\n\n    function buyTicket() external payable returns(uint256){\n        require(isAvailable, 'Purchase is not available');\n        require(totalAmount<maxAmount, 'Sold out, sry m8');\n        require(msg.value>=price, 'Incorrect amount');\n        require(userTickets[msg.sender]<1, 'You already have a ticket, m8');\n        totalAmount++;\n        uint256 ticketId=totalAmount;\n        _safeMint(msg.sender, ticketId);\n        userTickets[msg.sender]=ticketId;\n        ticketOwner[ticketId]=msg.sender;\n        if (totalAmount==maxAmount) {\n            isAvailable=!isAvailable;\n        }\n         return ticketId;\n\n    }\n    function getTokenById(uint256 id)public view returns(address){\n        require(id<=totalAmount, 'Incorrect ammount');\n        return ticketOwner[id];\n    }\n    function getTokenIdByOwner(address addy)public view returns(uint256){\n        return userTickets[addy];\n    }\n    function confirmOwnership(address addy) public view returns (bool) {\n        return userTickets[addy] > 0;\n    }\n\n}\n\ncontract ticketCreator{\n    mapping (uint256=>TicketNFT) public allEvents;\n    uint256 public indexOfDb=0;\n    function viewIndex() public view returns(uint256){\n        return indexOfDb;\n    }\n    function createTicket(string memory _name, string memory _symbol, uint256 _maxAmount, uint256 _price) \n    public\n    returns(TicketNFT tokenAddress){\n        TicketNFT nft = new TicketNFT(_name, _symbol,_maxAmount,_price, msg.sender);\n        allEvents[indexOfDb]=nft;\n        indexOfDb++;\n        return  nft;\n    }\n}",
  "sourcePath": "/Users/public_hysteria/vk_nft/contracts/nft.sol",
  "compiler": {
    "name": "solc",
    "version": "0.8.17+commit.8df45f5f.Emscripten.clang"
  },
  "schemaVersion": "3.4.11",
  "updatedAt": "2023-02-17T00:06:01.951Z",
  "networkType": "ethereum",
  "devdoc": {
    "kind": "dev",
    "methods": {},
    "version": 1
  },
  "userdoc": {
    "kind": "user",
    "methods": {},
    "version": 1
  }
}